{
  "_format": "hh-sol-artifact-1",
  "contractName": "CourseNFTContract",
  "sourceName": "contracts/CourseNFTContract.sol",
  "abi": [
    {
      "inputs": [
        {
          "internalType": "uint256",
          "name": "_mint_price",
          "type": "uint256"
        },
        {
          "internalType": "uint256",
          "name": "_max_tokens",
          "type": "uint256"
        },
        {
          "internalType": "string",
          "name": "_base_uri",
          "type": "string"
        },
        {
          "internalType": "address",
          "name": "_royaltyArtist",
          "type": "address"
        },
        {
          "internalType": "uint96",
          "name": "_royaltyBasis",
          "type": "uint96"
        }
      ],
      "stateMutability": "nonpayable",
      "type": "constructor"
    },
    {
      "inputs": [],
      "name": "CourseNFTContract__MaxSupplyReached",
      "type": "error"
    },
    {
      "inputs": [],
      "name": "CourseNFTContract__ValueNotEqualPrice",
      "type": "error"
    },
    {
      "inputs": [],
      "name": "CourseNFTContract__WrongAvenueForThisTransaction",
      "type": "error"
    },
    {
      "anonymous": false,
      "inputs": [
        {
          "indexed": true,
          "internalType": "address",
          "name": "owner",
          "type": "address"
        },
        {
          "indexed": true,
          "internalType": "address",
          "name": "approved",
          "type": "address"
        },
        {
          "indexed": true,
          "internalType": "uint256",
          "name": "tokenId",
          "type": "uint256"
        }
      ],
      "name": "Approval",
      "type": "event"
    },
    {
      "anonymous": false,
      "inputs": [
        {
          "indexed": true,
          "internalType": "address",
          "name": "owner",
          "type": "address"
        },
        {
          "indexed": true,
          "internalType": "address",
          "name": "operator",
          "type": "address"
        },
        {
          "indexed": false,
          "internalType": "bool",
          "name": "approved",
          "type": "bool"
        }
      ],
      "name": "ApprovalForAll",
      "type": "event"
    },
    {
      "anonymous": false,
      "inputs": [
        {
          "indexed": false,
          "internalType": "uint256",
          "name": "_fromTokenId",
          "type": "uint256"
        },
        {
          "indexed": false,
          "internalType": "uint256",
          "name": "_toTokenId",
          "type": "uint256"
        }
      ],
      "name": "BatchMetadataUpdate",
      "type": "event"
    },
    {
      "anonymous": false,
      "inputs": [
        {
          "indexed": false,
          "internalType": "address",
          "name": "owner",
          "type": "address"
        },
        {
          "indexed": false,
          "internalType": "uint256",
          "name": "amount",
          "type": "uint256"
        }
      ],
      "name": "FundsDistributed",
      "type": "event"
    },
    {
      "anonymous": false,
      "inputs": [
        {
          "indexed": false,
          "internalType": "uint256",
          "name": "_tokenId",
          "type": "uint256"
        }
      ],
      "name": "MetadataUpdate",
      "type": "event"
    },
    {
      "anonymous": false,
      "inputs": [
        {
          "indexed": false,
          "internalType": "uint256",
          "name": "tokenId",
          "type": "uint256"
        },
        {
          "indexed": false,
          "internalType": "address",
          "name": "owner",
          "type": "address"
        }
      ],
      "name": "MintingCompleted",
      "type": "event"
    },
    {
      "anonymous": false,
      "inputs": [
        {
          "indexed": true,
          "internalType": "address",
          "name": "previousOwner",
          "type": "address"
        },
        {
          "indexed": true,
          "internalType": "address",
          "name": "newOwner",
          "type": "address"
        }
      ],
      "name": "OwnershipTransferred",
      "type": "event"
    },
    {
      "anonymous": false,
      "inputs": [
        {
          "indexed": true,
          "internalType": "address",
          "name": "from",
          "type": "address"
        },
        {
          "indexed": true,
          "internalType": "address",
          "name": "to",
          "type": "address"
        },
        {
          "indexed": true,
          "internalType": "uint256",
          "name": "tokenId",
          "type": "uint256"
        }
      ],
      "name": "Transfer",
      "type": "event"
    },
    {
      "stateMutability": "payable",
      "type": "fallback"
    },
    {
      "inputs": [
        {
          "internalType": "address",
          "name": "to",
          "type": "address"
        },
        {
          "internalType": "uint256",
          "name": "tokenId",
          "type": "uint256"
        }
      ],
      "name": "approve",
      "outputs": [],
      "stateMutability": "nonpayable",
      "type": "function"
    },
    {
      "inputs": [
        {
          "internalType": "address",
          "name": "owner",
          "type": "address"
        }
      ],
      "name": "balanceOf",
      "outputs": [
        {
          "internalType": "uint256",
          "name": "",
          "type": "uint256"
        }
      ],
      "stateMutability": "view",
      "type": "function"
    },
    {
      "inputs": [
        {
          "internalType": "uint256",
          "name": "tokenId",
          "type": "uint256"
        }
      ],
      "name": "burn",
      "outputs": [],
      "stateMutability": "nonpayable",
      "type": "function"
    },
    {
      "inputs": [
        {
          "internalType": "uint256",
          "name": "tokenId",
          "type": "uint256"
        }
      ],
      "name": "getApproved",
      "outputs": [
        {
          "internalType": "address",
          "name": "",
          "type": "address"
        }
      ],
      "stateMutability": "view",
      "type": "function"
    },
    {
      "inputs": [],
      "name": "getBaseURI",
      "outputs": [
        {
          "internalType": "string",
          "name": "",
          "type": "string"
        }
      ],
      "stateMutability": "view",
      "type": "function"
    },
    {
      "inputs": [],
      "name": "getMaxSupply",
      "outputs": [
        {
          "internalType": "uint256",
          "name": "",
          "type": "uint256"
        }
      ],
      "stateMutability": "view",
      "type": "function"
    },
    {
      "inputs": [],
      "name": "getMintPrice",
      "outputs": [
        {
          "internalType": "uint256",
          "name": "",
          "type": "uint256"
        }
      ],
      "stateMutability": "view",
      "type": "function"
    },
    {
      "inputs": [
        {
          "internalType": "address",
          "name": "owner",
          "type": "address"
        },
        {
          "internalType": "address",
          "name": "operator",
          "type": "address"
        }
      ],
      "name": "isApprovedForAll",
      "outputs": [
        {
          "internalType": "bool",
          "name": "",
          "type": "bool"
        }
      ],
      "stateMutability": "view",
      "type": "function"
    },
    {
      "inputs": [
        {
          "internalType": "string",
          "name": "uri",
          "type": "string"
        }
      ],
      "name": "mintTo",
      "outputs": [
        {
          "internalType": "uint256",
          "name": "",
          "type": "uint256"
        }
      ],
      "stateMutability": "payable",
      "type": "function"
    },
    {
      "inputs": [],
      "name": "name",
      "outputs": [
        {
          "internalType": "string",
          "name": "",
          "type": "string"
        }
      ],
      "stateMutability": "view",
      "type": "function"
    },
    {
      "inputs": [],
      "name": "owner",
      "outputs": [
        {
          "internalType": "address",
          "name": "",
          "type": "address"
        }
      ],
      "stateMutability": "view",
      "type": "function"
    },
    {
      "inputs": [
        {
          "internalType": "uint256",
          "name": "tokenId",
          "type": "uint256"
        }
      ],
      "name": "ownerOf",
      "outputs": [
        {
          "internalType": "address",
          "name": "",
          "type": "address"
        }
      ],
      "stateMutability": "view",
      "type": "function"
    },
    {
      "inputs": [],
      "name": "renounceOwnership",
      "outputs": [],
      "stateMutability": "nonpayable",
      "type": "function"
    },
    {
      "inputs": [
        {
          "internalType": "uint256",
          "name": "tokenId",
          "type": "uint256"
        },
        {
          "internalType": "uint256",
          "name": "salePrice",
          "type": "uint256"
        }
      ],
      "name": "royaltyInfo",
      "outputs": [
        {
          "internalType": "address",
          "name": "",
          "type": "address"
        },
        {
          "internalType": "uint256",
          "name": "",
          "type": "uint256"
        }
      ],
      "stateMutability": "view",
      "type": "function"
    },
    {
      "inputs": [
        {
          "internalType": "address",
          "name": "from",
          "type": "address"
        },
        {
          "internalType": "address",
          "name": "to",
          "type": "address"
        },
        {
          "internalType": "uint256",
          "name": "tokenId",
          "type": "uint256"
        }
      ],
      "name": "safeTransferFrom",
      "outputs": [],
      "stateMutability": "nonpayable",
      "type": "function"
    },
    {
      "inputs": [
        {
          "internalType": "address",
          "name": "from",
          "type": "address"
        },
        {
          "internalType": "address",
          "name": "to",
          "type": "address"
        },
        {
          "internalType": "uint256",
          "name": "tokenId",
          "type": "uint256"
        },
        {
          "internalType": "bytes",
          "name": "data",
          "type": "bytes"
        }
      ],
      "name": "safeTransferFrom",
      "outputs": [],
      "stateMutability": "nonpayable",
      "type": "function"
    },
    {
      "inputs": [
        {
          "internalType": "address",
          "name": "operator",
          "type": "address"
        },
        {
          "internalType": "bool",
          "name": "approved",
          "type": "bool"
        }
      ],
      "name": "setApprovalForAll",
      "outputs": [],
      "stateMutability": "nonpayable",
      "type": "function"
    },
    {
      "inputs": [
        {
          "internalType": "address",
          "name": "_receiver",
          "type": "address"
        },
        {
          "internalType": "uint96",
          "name": "feeNumerator",
          "type": "uint96"
        }
      ],
      "name": "setRoyalty",
      "outputs": [],
      "stateMutability": "nonpayable",
      "type": "function"
    },
    {
      "inputs": [
        {
          "internalType": "bytes4",
          "name": "interfaceId",
          "type": "bytes4"
        }
      ],
      "name": "supportsInterface",
      "outputs": [
        {
          "internalType": "bool",
          "name": "",
          "type": "bool"
        }
      ],
      "stateMutability": "view",
      "type": "function"
    },
    {
      "inputs": [],
      "name": "symbol",
      "outputs": [
        {
          "internalType": "string",
          "name": "",
          "type": "string"
        }
      ],
      "stateMutability": "view",
      "type": "function"
    },
    {
      "inputs": [
        {
          "internalType": "uint256",
          "name": "index",
          "type": "uint256"
        }
      ],
      "name": "tokenByIndex",
      "outputs": [
        {
          "internalType": "uint256",
          "name": "",
          "type": "uint256"
        }
      ],
      "stateMutability": "view",
      "type": "function"
    },
    {
      "inputs": [
        {
          "internalType": "address",
          "name": "owner",
          "type": "address"
        },
        {
          "internalType": "uint256",
          "name": "index",
          "type": "uint256"
        }
      ],
      "name": "tokenOfOwnerByIndex",
      "outputs": [
        {
          "internalType": "uint256",
          "name": "",
          "type": "uint256"
        }
      ],
      "stateMutability": "view",
      "type": "function"
    },
    {
      "inputs": [
        {
          "internalType": "uint256",
          "name": "tokenId",
          "type": "uint256"
        }
      ],
      "name": "tokenURI",
      "outputs": [
        {
          "internalType": "string",
          "name": "",
          "type": "string"
        }
      ],
      "stateMutability": "view",
      "type": "function"
    },
    {
      "inputs": [],
      "name": "totalSupply",
      "outputs": [
        {
          "internalType": "uint256",
          "name": "",
          "type": "uint256"
        }
      ],
      "stateMutability": "view",
      "type": "function"
    },
    {
      "inputs": [
        {
          "internalType": "address",
          "name": "from",
          "type": "address"
        },
        {
          "internalType": "address",
          "name": "to",
          "type": "address"
        },
        {
          "internalType": "uint256",
          "name": "tokenId",
          "type": "uint256"
        }
      ],
      "name": "transferFrom",
      "outputs": [],
      "stateMutability": "nonpayable",
      "type": "function"
    },
    {
      "inputs": [
        {
          "internalType": "address",
          "name": "newOwner",
          "type": "address"
        }
      ],
      "name": "transferOwnership",
      "outputs": [],
      "stateMutability": "nonpayable",
      "type": "function"
    },
    {
      "stateMutability": "payable",
      "type": "receive"
    }
  ],
  "bytecode": "0x60e06040523480156200001157600080fd5b5060405162004aa638038062004aa683398181016040528101906200003791906200072a565b6040518060400160405280601181526020017f436f757273654e4654436f6e74726163740000000000000000000000000000008152506040518060400160405280600381526020017f434e4300000000000000000000000000000000000000000000000000000000008152508160029080519060200190620000bb929190620003f4565b508060039080519060200190620000d4929190620003f4565b505050620000f7620000eb6200017960201b60201c565b6200018160201b60201c565b6001600e8190555084608081815250508360a08181525050826010908051906020019062000127929190620003f4565b506200013a82826200024760201b60201c565b3373ffffffffffffffffffffffffffffffffffffffff1660c08173ffffffffffffffffffffffffffffffffffffffff1681525050505050505062000951565b600033905090565b6000600d60009054906101000a900473ffffffffffffffffffffffffffffffffffffffff16905081600d60006101000a81548173ffffffffffffffffffffffffffffffffffffffff021916908373ffffffffffffffffffffffffffffffffffffffff1602179055508173ffffffffffffffffffffffffffffffffffffffff168173ffffffffffffffffffffffffffffffffffffffff167f8be0079c531659141344cd1fd0a4f28419497f9722a3daafe3b4186f6b6457e060405160405180910390a35050565b62000257620003ea60201b60201c565b6bffffffffffffffffffffffff16816bffffffffffffffffffffffff161115620002b8576040517f08c379a0000000000000000000000000000000000000000000000000000000008152600401620002af9062000858565b60405180910390fd5b600073ffffffffffffffffffffffffffffffffffffffff168273ffffffffffffffffffffffffffffffffffffffff1614156200032b576040517f08c379a00000000000000000000000000000000000000000000000000000000081526004016200032290620008ca565b60405180910390fd5b60405180604001604052808373ffffffffffffffffffffffffffffffffffffffff168152602001826bffffffffffffffffffffffff168152506000808201518160000160006101000a81548173ffffffffffffffffffffffffffffffffffffffff021916908373ffffffffffffffffffffffffffffffffffffffff16021790555060208201518160000160146101000a8154816bffffffffffffffffffffffff02191690836bffffffffffffffffffffffff1602179055509050505050565b6000612710905090565b82805462000402906200091b565b90600052602060002090601f01602090048101928262000426576000855562000472565b82601f106200044157805160ff191683800117855562000472565b8280016001018555821562000472579182015b828111156200047157825182559160200191906001019062000454565b5b50905062000481919062000485565b5090565b5b80821115620004a057600081600090555060010162000486565b5090565b6000604051905090565b600080fd5b600080fd5b6000819050919050565b620004cd81620004b8565b8114620004d957600080fd5b50565b600081519050620004ed81620004c2565b92915050565b600080fd5b600080fd5b6000601f19601f8301169050919050565b7f4e487b7100000000000000000000000000000000000000000000000000000000600052604160045260246000fd5b6200054882620004fd565b810181811067ffffffffffffffff821117156200056a57620005696200050e565b5b80604052505050565b60006200057f620004a4565b90506200058d82826200053d565b919050565b600067ffffffffffffffff821115620005b057620005af6200050e565b5b620005bb82620004fd565b9050602081019050919050565b60005b83811015620005e8578082015181840152602081019050620005cb565b83811115620005f8576000848401525b50505050565b6000620006156200060f8462000592565b62000573565b905082815260208101848484011115620006345762000633620004f8565b5b62000641848285620005c8565b509392505050565b600082601f830112620006615762000660620004f3565b5b815162000673848260208601620005fe565b91505092915050565b600073ffffffffffffffffffffffffffffffffffffffff82169050919050565b6000620006a9826200067c565b9050919050565b620006bb816200069c565b8114620006c757600080fd5b50565b600081519050620006db81620006b0565b92915050565b60006bffffffffffffffffffffffff82169050919050565b6200070481620006e1565b81146200071057600080fd5b50565b6000815190506200072481620006f9565b92915050565b600080600080600060a08688031215620007495762000748620004ae565b5b60006200075988828901620004dc565b95505060206200076c88828901620004dc565b945050604086015167ffffffffffffffff81111562000790576200078f620004b3565b5b6200079e8882890162000649565b9350506060620007b188828901620006ca565b9250506080620007c48882890162000713565b9150509295509295909350565b600082825260208201905092915050565b7f455243323938313a20726f79616c7479206665652077696c6c2065786365656460008201527f2073616c65507269636500000000000000000000000000000000000000000000602082015250565b600062000840602a83620007d1565b91506200084d82620007e2565b604082019050919050565b60006020820190508181036000830152620008738162000831565b9050919050565b7f455243323938313a20696e76616c696420726563656976657200000000000000600082015250565b6000620008b2601983620007d1565b9150620008bf826200087a565b602082019050919050565b60006020820190508181036000830152620008e581620008a3565b9050919050565b7f4e487b7100000000000000000000000000000000000000000000000000000000600052602260045260246000fd5b600060028204905060018216806200093457607f821691505b602082108114156200094b576200094a620008ec565b5b50919050565b60805160a05160c0516141106200099660003960008181610a180152610aa00152600081816108f90152610e5901526000818161095201526111bf01526141106000f3fe6080604052600436106101855760003560e01c80636352211e116100d157806395d89b411161008a578063b88d4fde11610064578063b88d4fde14610604578063c87b56dd1461062d578063e985e9c51461066a578063f2fde38b146106a7576101bc565b806395d89b4114610585578063a22cb465146105b0578063a7f93ebd146105d9576101bc565b80636352211e1461047557806370a08231146104b2578063714c5398146104ef578063715018a61461051a5780638da5cb5b146105315780638f2fc60b1461055c576101bc565b806323b872dd1161013e57806342842e0e1161011857806342842e0e146103bb57806342966c68146103e45780634c0f38c21461040d5780634f6ccce714610438576101bc565b806323b872dd146103175780632a55205a146103405780632f745c591461037e576101bc565b806301ffc9a7146101ee57806306fdde031461022b578063081812fc14610256578063095ea7b31461029357806318160ddd146102bc57806318b9948d146102e7576101bc565b366101bc576040517fee62afa600000000000000000000000000000000000000000000000000000000815260040160405180910390fd5b6040517fee62afa600000000000000000000000000000000000000000000000000000000815260040160405180910390fd5b3480156101fa57600080fd5b5061021560048036038101906102109190612d35565b6106d0565b6040516102229190612d7d565b60405180910390f35b34801561023757600080fd5b506102406106e2565b60405161024d9190612e31565b60405180910390f35b34801561026257600080fd5b5061027d60048036038101906102789190612e89565b610774565b60405161028a9190612ef7565b60405180910390f35b34801561029f57600080fd5b506102ba60048036038101906102b59190612f3e565b6107ba565b005b3480156102c857600080fd5b506102d16108d2565b6040516102de9190612f8d565b60405180910390f35b61030160048036038101906102fc919061300d565b6108df565b60405161030e9190612f8d565b60405180910390f35b34801561032357600080fd5b5061033e6004803603810190610339919061305a565b610ae9565b005b34801561034c57600080fd5b50610367600480360381019061036291906130ad565b610b49565b6040516103759291906130ed565b60405180910390f35b34801561038a57600080fd5b506103a560048036038101906103a09190612f3e565b610d34565b6040516103b29190612f8d565b60405180910390f35b3480156103c757600080fd5b506103e260048036038101906103dd919061305a565b610dd9565b005b3480156103f057600080fd5b5061040b60048036038101906104069190612e89565b610df9565b005b34801561041957600080fd5b50610422610e55565b60405161042f9190612f8d565b60405180910390f35b34801561044457600080fd5b5061045f600480360381019061045a9190612e89565b610e7d565b60405161046c9190612f8d565b60405180910390f35b34801561048157600080fd5b5061049c60048036038101906104979190612e89565b610eee565b6040516104a99190612ef7565b60405180910390f35b3480156104be57600080fd5b506104d960048036038101906104d49190613116565b610f75565b6040516104e69190612f8d565b60405180910390f35b3480156104fb57600080fd5b5061050461102d565b6040516105119190612e31565b60405180910390f35b34801561052657600080fd5b5061052f6110bf565b005b34801561053d57600080fd5b506105466110d3565b6040516105539190612ef7565b60405180910390f35b34801561056857600080fd5b50610583600480360381019061057e9190613187565b6110fd565b005b34801561059157600080fd5b5061059a611113565b6040516105a79190612e31565b60405180910390f35b3480156105bc57600080fd5b506105d760048036038101906105d291906131f3565b6111a5565b005b3480156105e557600080fd5b506105ee6111bb565b6040516105fb9190612f8d565b60405180910390f35b34801561061057600080fd5b5061062b60048036038101906106269190613363565b6111e3565b005b34801561063957600080fd5b50610654600480360381019061064f9190612e89565b611245565b6040516106619190612e31565b60405180910390f35b34801561067657600080fd5b50610691600480360381019061068c91906133e6565b6112e2565b60405161069e9190612d7d565b60405180910390f35b3480156106b357600080fd5b506106ce60048036038101906106c99190613116565b611376565b005b60006106db826113fa565b9050919050565b6060600280546106f190613455565b80601f016020809104026020016040519081016040528092919081815260200182805461071d90613455565b801561076a5780601f1061073f5761010080835404028352916020019161076a565b820191906000526020600020905b81548152906001019060200180831161074d57829003601f168201915b5050505050905090565b600061077f8261140c565b6006600083815260200190815260200160002060009054906101000a900473ffffffffffffffffffffffffffffffffffffffff169050919050565b60006107c582610eee565b90508073ffffffffffffffffffffffffffffffffffffffff168373ffffffffffffffffffffffffffffffffffffffff161415610836576040517f08c379a000000000000000000000000000000000000000000000000000000000815260040161082d906134f9565b60405180910390fd5b8073ffffffffffffffffffffffffffffffffffffffff16610855611457565b73ffffffffffffffffffffffffffffffffffffffff16148061088457506108838161087e611457565b6112e2565b5b6108c3576040517f08c379a00000000000000000000000000000000000000000000000000000000081526004016108ba9061358b565b60405180910390fd5b6108cd838361145f565b505050565b6000600a80549050905090565b60006108e9611518565b60006108f5600f611568565b90507f00000000000000000000000000000000000000000000000000000000000000008110610950576040517f52a1deb800000000000000000000000000000000000000000000000000000000815260040160405180910390fd5b7f000000000000000000000000000000000000000000000000000000000000000034146109a9576040517f3284d81f00000000000000000000000000000000000000000000000000000000815260040160405180910390fd5b6109b3600f611576565b60006109bf600f611568565b90506109cb338261158c565b7f19003791b5fbb7a5686dd3ea0edfc0712c3e3dcf415e067038698320ced6d07381336040516109fc9291906135ab565b60405180910390a1848460119190610a15929190612be6565b507f000000000000000000000000000000000000000000000000000000000000000073ffffffffffffffffffffffffffffffffffffffff166108fc479081150290604051600060405180830381858888f19350505050158015610a7c573d6000803e3d6000fd5b507f26536799ace2c3dbe12e638ec3ade6b4173dcf1289be0a58d51a5003015649bd7f000000000000000000000000000000000000000000000000000000000000000034604051610ace9291906130ed565b60405180910390a18092505050610ae36115aa565b92915050565b610afa610af4611457565b826115b4565b610b39576040517f08c379a0000000000000000000000000000000000000000000000000000000008152600401610b3090613646565b60405180910390fd5b610b44838383611649565b505050565b6000806000600160008681526020019081526020016000206040518060400160405290816000820160009054906101000a900473ffffffffffffffffffffffffffffffffffffffff1673ffffffffffffffffffffffffffffffffffffffff1673ffffffffffffffffffffffffffffffffffffffff1681526020016000820160149054906101000a90046bffffffffffffffffffffffff166bffffffffffffffffffffffff166bffffffffffffffffffffffff16815250509050600073ffffffffffffffffffffffffffffffffffffffff16816000015173ffffffffffffffffffffffffffffffffffffffff161415610cdf5760006040518060400160405290816000820160009054906101000a900473ffffffffffffffffffffffffffffffffffffffff1673ffffffffffffffffffffffffffffffffffffffff1673ffffffffffffffffffffffffffffffffffffffff1681526020016000820160149054906101000a90046bffffffffffffffffffffffff166bffffffffffffffffffffffff166bffffffffffffffffffffffff168152505090505b6000610ce9611943565b6bffffffffffffffffffffffff1682602001516bffffffffffffffffffffffff1686610d159190613695565b610d1f919061371e565b90508160000151819350935050509250929050565b6000610d3f83610f75565b8210610d80576040517f08c379a0000000000000000000000000000000000000000000000000000000008152600401610d77906137c1565b60405180910390fd5b600860008473ffffffffffffffffffffffffffffffffffffffff1673ffffffffffffffffffffffffffffffffffffffff168152602001908152602001600020600083815260200190815260200160002054905092915050565b610df4838383604051806020016040528060008152506111e3565b505050565b610e0a610e04611457565b826115b4565b610e49576040517f08c379a0000000000000000000000000000000000000000000000000000000008152600401610e4090613646565b60405180910390fd5b610e528161194d565b50565b60007f0000000000000000000000000000000000000000000000000000000000000000905090565b6000610e876108d2565b8210610ec8576040517f08c379a0000000000000000000000000000000000000000000000000000000008152600401610ebf90613853565b60405180910390fd5b600a8281548110610edc57610edb613873565b5b90600052602060002001549050919050565b600080610efa83611959565b9050600073ffffffffffffffffffffffffffffffffffffffff168173ffffffffffffffffffffffffffffffffffffffff161415610f6c576040517f08c379a0000000000000000000000000000000000000000000000000000000008152600401610f63906138ee565b60405180910390fd5b80915050919050565b60008073ffffffffffffffffffffffffffffffffffffffff168273ffffffffffffffffffffffffffffffffffffffff161415610fe6576040517f08c379a0000000000000000000000000000000000000000000000000000000008152600401610fdd90613980565b60405180910390fd5b600560008373ffffffffffffffffffffffffffffffffffffffff1673ffffffffffffffffffffffffffffffffffffffff168152602001908152602001600020549050919050565b60606010805461103c90613455565b80601f016020809104026020016040519081016040528092919081815260200182805461106890613455565b80156110b55780601f1061108a576101008083540402835291602001916110b5565b820191906000526020600020905b81548152906001019060200180831161109857829003601f168201915b5050505050905090565b6110c7611996565b6110d16000611a14565b565b6000600d60009054906101000a900473ffffffffffffffffffffffffffffffffffffffff16905090565b611105611996565b61110f8282611ada565b5050565b60606003805461112290613455565b80601f016020809104026020016040519081016040528092919081815260200182805461114e90613455565b801561119b5780601f106111705761010080835404028352916020019161119b565b820191906000526020600020905b81548152906001019060200180831161117e57829003601f168201915b5050505050905090565b6111b76111b0611457565b8383611c6f565b5050565b60007f0000000000000000000000000000000000000000000000000000000000000000905090565b6111f46111ee611457565b836115b4565b611233576040517f08c379a000000000000000000000000000000000000000000000000000000000815260040161122a90613646565b60405180910390fd5b61123f84848484611ddc565b50505050565b60606112508261140c565b6011805461125d90613455565b80601f016020809104026020016040519081016040528092919081815260200182805461128990613455565b80156112d65780601f106112ab576101008083540402835291602001916112d6565b820191906000526020600020905b8154815290600101906020018083116112b957829003601f168201915b50505050509050919050565b6000600760008473ffffffffffffffffffffffffffffffffffffffff1673ffffffffffffffffffffffffffffffffffffffff16815260200190815260200160002060008373ffffffffffffffffffffffffffffffffffffffff1673ffffffffffffffffffffffffffffffffffffffff16815260200190815260200160002060009054906101000a900460ff16905092915050565b61137e611996565b600073ffffffffffffffffffffffffffffffffffffffff168173ffffffffffffffffffffffffffffffffffffffff1614156113ee576040517f08c379a00000000000000000000000000000000000000000000000000000000081526004016113e590613a12565b60405180910390fd5b6113f781611a14565b50565b600061140582611e38565b9050919050565b61141581611e99565b611454576040517f08c379a000000000000000000000000000000000000000000000000000000000815260040161144b906138ee565b60405180910390fd5b50565b600033905090565b816006600083815260200190815260200160002060006101000a81548173ffffffffffffffffffffffffffffffffffffffff021916908373ffffffffffffffffffffffffffffffffffffffff160217905550808273ffffffffffffffffffffffffffffffffffffffff166114d283610eee565b73ffffffffffffffffffffffffffffffffffffffff167f8c5be1e5ebec7d5bd14f71427d1e84f3dd0314c0f7b2291e5b200ac8c7c3b92560405160405180910390a45050565b6002600e54141561155e576040517f08c379a000000000000000000000000000000000000000000000000000000000815260040161155590613a7e565b60405180910390fd5b6002600e81905550565b600081600001549050919050565b6001816000016000828254019250508190555050565b6115a6828260405180602001604052806000815250611eda565b5050565b6001600e81905550565b6000806115c083610eee565b90508073ffffffffffffffffffffffffffffffffffffffff168473ffffffffffffffffffffffffffffffffffffffff161480611602575061160181856112e2565b5b8061164057508373ffffffffffffffffffffffffffffffffffffffff1661162884610774565b73ffffffffffffffffffffffffffffffffffffffff16145b91505092915050565b8273ffffffffffffffffffffffffffffffffffffffff1661166982610eee565b73ffffffffffffffffffffffffffffffffffffffff16146116bf576040517f08c379a00000000000000000000000000000000000000000000000000000000081526004016116b690613b10565b60405180910390fd5b600073ffffffffffffffffffffffffffffffffffffffff168273ffffffffffffffffffffffffffffffffffffffff16141561172f576040517f08c379a000000000000000000000000000000000000000000000000000000000815260040161172690613ba2565b60405180910390fd5b61173c8383836001611f35565b8273ffffffffffffffffffffffffffffffffffffffff1661175c82610eee565b73ffffffffffffffffffffffffffffffffffffffff16146117b2576040517f08c379a00000000000000000000000000000000000000000000000000000000081526004016117a990613b10565b60405180910390fd5b6006600082815260200190815260200160002060006101000a81549073ffffffffffffffffffffffffffffffffffffffff02191690556001600560008573ffffffffffffffffffffffffffffffffffffffff1673ffffffffffffffffffffffffffffffffffffffff168152602001908152602001600020600082825403925050819055506001600560008473ffffffffffffffffffffffffffffffffffffffff1673ffffffffffffffffffffffffffffffffffffffff16815260200190815260200160002060008282540192505081905550816004600083815260200190815260200160002060006101000a81548173ffffffffffffffffffffffffffffffffffffffff021916908373ffffffffffffffffffffffffffffffffffffffff160217905550808273ffffffffffffffffffffffffffffffffffffffff168473ffffffffffffffffffffffffffffffffffffffff167fddf252ad1be2c89b69c2b068fc378daa952ba7f163c4a11628f55a4df523b3ef60405160405180910390a461193e8383836001611f47565b505050565b6000612710905090565b61195681611f4d565b50565b60006004600083815260200190815260200160002060009054906101000a900473ffffffffffffffffffffffffffffffffffffffff169050919050565b61199e611457565b73ffffffffffffffffffffffffffffffffffffffff166119bc6110d3565b73ffffffffffffffffffffffffffffffffffffffff1614611a12576040517f08c379a0000000000000000000000000000000000000000000000000000000008152600401611a0990613c0e565b60405180910390fd5b565b6000600d60009054906101000a900473ffffffffffffffffffffffffffffffffffffffff16905081600d60006101000a81548173ffffffffffffffffffffffffffffffffffffffff021916908373ffffffffffffffffffffffffffffffffffffffff1602179055508173ffffffffffffffffffffffffffffffffffffffff168173ffffffffffffffffffffffffffffffffffffffff167f8be0079c531659141344cd1fd0a4f28419497f9722a3daafe3b4186f6b6457e060405160405180910390a35050565b611ae2611943565b6bffffffffffffffffffffffff16816bffffffffffffffffffffffff161115611b40576040517f08c379a0000000000000000000000000000000000000000000000000000000008152600401611b3790613ca0565b60405180910390fd5b600073ffffffffffffffffffffffffffffffffffffffff168273ffffffffffffffffffffffffffffffffffffffff161415611bb0576040517f08c379a0000000000000000000000000000000000000000000000000000000008152600401611ba790613d0c565b60405180910390fd5b60405180604001604052808373ffffffffffffffffffffffffffffffffffffffff168152602001826bffffffffffffffffffffffff168152506000808201518160000160006101000a81548173ffffffffffffffffffffffffffffffffffffffff021916908373ffffffffffffffffffffffffffffffffffffffff16021790555060208201518160000160146101000a8154816bffffffffffffffffffffffff02191690836bffffffffffffffffffffffff1602179055509050505050565b8173ffffffffffffffffffffffffffffffffffffffff168373ffffffffffffffffffffffffffffffffffffffff161415611cde576040517f08c379a0000000000000000000000000000000000000000000000000000000008152600401611cd590613d78565b60405180910390fd5b80600760008573ffffffffffffffffffffffffffffffffffffffff1673ffffffffffffffffffffffffffffffffffffffff16815260200190815260200160002060008473ffffffffffffffffffffffffffffffffffffffff1673ffffffffffffffffffffffffffffffffffffffff16815260200190815260200160002060006101000a81548160ff0219169083151502179055508173ffffffffffffffffffffffffffffffffffffffff168373ffffffffffffffffffffffffffffffffffffffff167f17307eab39ab6107e8899845ad3d59bd9653f200f220920489ca2b5937696c3183604051611dcf9190612d7d565b60405180910390a3505050565b611de7848484611649565b611df384848484611f62565b611e32576040517f08c379a0000000000000000000000000000000000000000000000000000000008152600401611e2990613e0a565b60405180910390fd5b50505050565b6000634906490660e01b7bffffffffffffffffffffffffffffffffffffffffffffffffffffffff1916827bffffffffffffffffffffffffffffffffffffffffffffffffffffffff19161480611e925750611e91826120f9565b5b9050919050565b60008073ffffffffffffffffffffffffffffffffffffffff16611ebb83611959565b73ffffffffffffffffffffffffffffffffffffffff1614159050919050565b611ee48383612173565b611ef16000848484611f62565b611f30576040517f08c379a0000000000000000000000000000000000000000000000000000000008152600401611f2790613e0a565b60405180910390fd5b505050565b611f4184848484612391565b50505050565b50505050565b611f56816124f1565b611f5f81612544565b50565b6000611f838473ffffffffffffffffffffffffffffffffffffffff166125a3565b156120ec578373ffffffffffffffffffffffffffffffffffffffff1663150b7a02611fac611457565b8786866040518563ffffffff1660e01b8152600401611fce9493929190613e7f565b602060405180830381600087803b158015611fe857600080fd5b505af192505050801561201957506040513d601f19601f820116820180604052508101906120169190613ee0565b60015b61209c573d8060008114612049576040519150601f19603f3d011682016040523d82523d6000602084013e61204e565b606091505b50600081511415612094576040517f08c379a000000000000000000000000000000000000000000000000000000000815260040161208b90613e0a565b60405180910390fd5b805181602001fd5b63150b7a0260e01b7bffffffffffffffffffffffffffffffffffffffffffffffffffffffff1916817bffffffffffffffffffffffffffffffffffffffffffffffffffffffff1916149150506120f1565b600190505b949350505050565b60007f780e9d63000000000000000000000000000000000000000000000000000000007bffffffffffffffffffffffffffffffffffffffffffffffffffffffff1916827bffffffffffffffffffffffffffffffffffffffffffffffffffffffff1916148061216c575061216b826125c6565b5b9050919050565b600073ffffffffffffffffffffffffffffffffffffffff168273ffffffffffffffffffffffffffffffffffffffff1614156121e3576040517f08c379a00000000000000000000000000000000000000000000000000000000081526004016121da90613f59565b60405180910390fd5b6121ec81611e99565b1561222c576040517f08c379a000000000000000000000000000000000000000000000000000000000815260040161222390613fc5565b60405180910390fd5b61223a600083836001611f35565b61224381611e99565b15612283576040517f08c379a000000000000000000000000000000000000000000000000000000000815260040161227a90613fc5565b60405180910390fd5b6001600560008473ffffffffffffffffffffffffffffffffffffffff1673ffffffffffffffffffffffffffffffffffffffff16815260200190815260200160002060008282540192505081905550816004600083815260200190815260200160002060006101000a81548173ffffffffffffffffffffffffffffffffffffffff021916908373ffffffffffffffffffffffffffffffffffffffff160217905550808273ffffffffffffffffffffffffffffffffffffffff16600073ffffffffffffffffffffffffffffffffffffffff167fddf252ad1be2c89b69c2b068fc378daa952ba7f163c4a11628f55a4df523b3ef60405160405180910390a461238d600083836001611f47565b5050565b61239d848484846126a8565b60018111156123e1576040517f08c379a00000000000000000000000000000000000000000000000000000000081526004016123d890614057565b60405180910390fd5b6000829050600073ffffffffffffffffffffffffffffffffffffffff168573ffffffffffffffffffffffffffffffffffffffff16141561242957612424816126ae565b612468565b8373ffffffffffffffffffffffffffffffffffffffff168573ffffffffffffffffffffffffffffffffffffffff16146124675761246685826126f7565b5b5b600073ffffffffffffffffffffffffffffffffffffffff168473ffffffffffffffffffffffffffffffffffffffff1614156124ab576124a681612864565b6124ea565b8473ffffffffffffffffffffffffffffffffffffffff168473ffffffffffffffffffffffffffffffffffffffff16146124e9576124e88482612935565b5b5b5050505050565b6124fa816129b4565b6000600c6000838152602001908152602001600020805461251a90613455565b90501461254157600c600082815260200190815260200160002060006125409190612c6c565b5b50565b60016000828152602001908152602001600020600080820160006101000a81549073ffffffffffffffffffffffffffffffffffffffff02191690556000820160146101000a8154906bffffffffffffffffffffffff0219169055505050565b6000808273ffffffffffffffffffffffffffffffffffffffff163b119050919050565b60007f80ac58cd000000000000000000000000000000000000000000000000000000007bffffffffffffffffffffffffffffffffffffffffffffffffffffffff1916827bffffffffffffffffffffffffffffffffffffffffffffffffffffffff1916148061269157507f5b5e139f000000000000000000000000000000000000000000000000000000007bffffffffffffffffffffffffffffffffffffffffffffffffffffffff1916827bffffffffffffffffffffffffffffffffffffffffffffffffffffffff1916145b806126a157506126a082612b02565b5b9050919050565b50505050565b600a80549050600b600083815260200190815260200160002081905550600a81908060018154018082558091505060019003906000526020600020016000909190919091505550565b6000600161270484610f75565b61270e9190614077565b90506000600960008481526020019081526020016000205490508181146127f3576000600860008673ffffffffffffffffffffffffffffffffffffffff1673ffffffffffffffffffffffffffffffffffffffff168152602001908152602001600020600084815260200190815260200160002054905080600860008773ffffffffffffffffffffffffffffffffffffffff1673ffffffffffffffffffffffffffffffffffffffff168152602001908152602001600020600084815260200190815260200160002081905550816009600083815260200190815260200160002081905550505b6009600084815260200190815260200160002060009055600860008573ffffffffffffffffffffffffffffffffffffffff1673ffffffffffffffffffffffffffffffffffffffff16815260200190815260200160002060008381526020019081526020016000206000905550505050565b60006001600a805490506128789190614077565b90506000600b60008481526020019081526020016000205490506000600a83815481106128a8576128a7613873565b5b9060005260206000200154905080600a83815481106128ca576128c9613873565b5b906000526020600020018190555081600b600083815260200190815260200160002081905550600b600085815260200190815260200160002060009055600a805480612919576129186140ab565b5b6001900381819060005260206000200160009055905550505050565b600061294083610f75565b905081600860008573ffffffffffffffffffffffffffffffffffffffff1673ffffffffffffffffffffffffffffffffffffffff168152602001908152602001600020600083815260200190815260200160002081905550806009600084815260200190815260200160002081905550505050565b60006129bf82610eee565b90506129cf816000846001611f35565b6129d882610eee565b90506006600083815260200190815260200160002060006101000a81549073ffffffffffffffffffffffffffffffffffffffff02191690556001600560008373ffffffffffffffffffffffffffffffffffffffff1673ffffffffffffffffffffffffffffffffffffffff168152602001908152602001600020600082825403925050819055506004600083815260200190815260200160002060006101000a81549073ffffffffffffffffffffffffffffffffffffffff021916905581600073ffffffffffffffffffffffffffffffffffffffff168273ffffffffffffffffffffffffffffffffffffffff167fddf252ad1be2c89b69c2b068fc378daa952ba7f163c4a11628f55a4df523b3ef60405160405180910390a4612afe816000846001611f47565b5050565b60007f2a55205a000000000000000000000000000000000000000000000000000000007bffffffffffffffffffffffffffffffffffffffffffffffffffffffff1916827bffffffffffffffffffffffffffffffffffffffffffffffffffffffff19161480612b755750612b7482612b7c565b5b9050919050565b60007f01ffc9a7000000000000000000000000000000000000000000000000000000007bffffffffffffffffffffffffffffffffffffffffffffffffffffffff1916827bffffffffffffffffffffffffffffffffffffffffffffffffffffffff1916149050919050565b828054612bf290613455565b90600052602060002090601f016020900481019282612c145760008555612c5b565b82601f10612c2d57803560ff1916838001178555612c5b565b82800160010185558215612c5b579182015b82811115612c5a578235825591602001919060010190612c3f565b5b509050612c689190612cac565b5090565b508054612c7890613455565b6000825580601f10612c8a5750612ca9565b601f016020900490600052602060002090810190612ca89190612cac565b5b50565b5b80821115612cc5576000816000905550600101612cad565b5090565b6000604051905090565b600080fd5b600080fd5b60007fffffffff0000000000000000000000000000000000000000000000000000000082169050919050565b612d1281612cdd565b8114612d1d57600080fd5b50565b600081359050612d2f81612d09565b92915050565b600060208284031215612d4b57612d4a612cd3565b5b6000612d5984828501612d20565b91505092915050565b60008115159050919050565b612d7781612d62565b82525050565b6000602082019050612d926000830184612d6e565b92915050565b600081519050919050565b600082825260208201905092915050565b60005b83811015612dd2578082015181840152602081019050612db7565b83811115612de1576000848401525b50505050565b6000601f19601f8301169050919050565b6000612e0382612d98565b612e0d8185612da3565b9350612e1d818560208601612db4565b612e2681612de7565b840191505092915050565b60006020820190508181036000830152612e4b8184612df8565b905092915050565b6000819050919050565b612e6681612e53565b8114612e7157600080fd5b50565b600081359050612e8381612e5d565b92915050565b600060208284031215612e9f57612e9e612cd3565b5b6000612ead84828501612e74565b91505092915050565b600073ffffffffffffffffffffffffffffffffffffffff82169050919050565b6000612ee182612eb6565b9050919050565b612ef181612ed6565b82525050565b6000602082019050612f0c6000830184612ee8565b92915050565b612f1b81612ed6565b8114612f2657600080fd5b50565b600081359050612f3881612f12565b92915050565b60008060408385031215612f5557612f54612cd3565b5b6000612f6385828601612f29565b9250506020612f7485828601612e74565b9150509250929050565b612f8781612e53565b82525050565b6000602082019050612fa26000830184612f7e565b92915050565b600080fd5b600080fd5b600080fd5b60008083601f840112612fcd57612fcc612fa8565b5b8235905067ffffffffffffffff811115612fea57612fe9612fad565b5b60208301915083600182028301111561300657613005612fb2565b5b9250929050565b6000806020838503121561302457613023612cd3565b5b600083013567ffffffffffffffff81111561304257613041612cd8565b5b61304e85828601612fb7565b92509250509250929050565b60008060006060848603121561307357613072612cd3565b5b600061308186828701612f29565b935050602061309286828701612f29565b92505060406130a386828701612e74565b9150509250925092565b600080604083850312156130c4576130c3612cd3565b5b60006130d285828601612e74565b92505060206130e385828601612e74565b9150509250929050565b60006040820190506131026000830185612ee8565b61310f6020830184612f7e565b9392505050565b60006020828403121561312c5761312b612cd3565b5b600061313a84828501612f29565b91505092915050565b60006bffffffffffffffffffffffff82169050919050565b61316481613143565b811461316f57600080fd5b50565b6000813590506131818161315b565b92915050565b6000806040838503121561319e5761319d612cd3565b5b60006131ac85828601612f29565b92505060206131bd85828601613172565b9150509250929050565b6131d081612d62565b81146131db57600080fd5b50565b6000813590506131ed816131c7565b92915050565b6000806040838503121561320a57613209612cd3565b5b600061321885828601612f29565b9250506020613229858286016131de565b9150509250929050565b600080fd5b7f4e487b7100000000000000000000000000000000000000000000000000000000600052604160045260246000fd5b61327082612de7565b810181811067ffffffffffffffff8211171561328f5761328e613238565b5b80604052505050565b60006132a2612cc9565b90506132ae8282613267565b919050565b600067ffffffffffffffff8211156132ce576132cd613238565b5b6132d782612de7565b9050602081019050919050565b82818337600083830152505050565b6000613306613301846132b3565b613298565b90508281526020810184848401111561332257613321613233565b5b61332d8482856132e4565b509392505050565b600082601f83011261334a57613349612fa8565b5b813561335a8482602086016132f3565b91505092915050565b6000806000806080858703121561337d5761337c612cd3565b5b600061338b87828801612f29565b945050602061339c87828801612f29565b93505060406133ad87828801612e74565b925050606085013567ffffffffffffffff8111156133ce576133cd612cd8565b5b6133da87828801613335565b91505092959194509250565b600080604083850312156133fd576133fc612cd3565b5b600061340b85828601612f29565b925050602061341c85828601612f29565b9150509250929050565b7f4e487b7100000000000000000000000000000000000000000000000000000000600052602260045260246000fd5b6000600282049050600182168061346d57607f821691505b6020821081141561348157613480613426565b5b50919050565b7f4552433732313a20617070726f76616c20746f2063757272656e74206f776e6560008201527f7200000000000000000000000000000000000000000000000000000000000000602082015250565b60006134e3602183612da3565b91506134ee82613487565b604082019050919050565b60006020820190508181036000830152613512816134d6565b9050919050565b7f4552433732313a20617070726f76652063616c6c6572206973206e6f7420746f60008201527f6b656e206f776e6572206f7220617070726f76656420666f7220616c6c000000602082015250565b6000613575603d83612da3565b915061358082613519565b604082019050919050565b600060208201905081810360008301526135a481613568565b9050919050565b60006040820190506135c06000830185612f7e565b6135cd6020830184612ee8565b9392505050565b7f4552433732313a2063616c6c6572206973206e6f7420746f6b656e206f776e6560008201527f72206f7220617070726f76656400000000000000000000000000000000000000602082015250565b6000613630602d83612da3565b915061363b826135d4565b604082019050919050565b6000602082019050818103600083015261365f81613623565b9050919050565b7f4e487b7100000000000000000000000000000000000000000000000000000000600052601160045260246000fd5b60006136a082612e53565b91506136ab83612e53565b9250817fffffffffffffffffffffffffffffffffffffffffffffffffffffffffffffffff04831182151516156136e4576136e3613666565b5b828202905092915050565b7f4e487b7100000000000000000000000000000000000000000000000000000000600052601260045260246000fd5b600061372982612e53565b915061373483612e53565b925082613744576137436136ef565b5b828204905092915050565b7f455243373231456e756d657261626c653a206f776e657220696e646578206f7560008201527f74206f6620626f756e6473000000000000000000000000000000000000000000602082015250565b60006137ab602b83612da3565b91506137b68261374f565b604082019050919050565b600060208201905081810360008301526137da8161379e565b9050919050565b7f455243373231456e756d657261626c653a20676c6f62616c20696e646578206f60008201527f7574206f6620626f756e64730000000000000000000000000000000000000000602082015250565b600061383d602c83612da3565b9150613848826137e1565b604082019050919050565b6000602082019050818103600083015261386c81613830565b9050919050565b7f4e487b7100000000000000000000000000000000000000000000000000000000600052603260045260246000fd5b7f4552433732313a20696e76616c696420746f6b656e2049440000000000000000600082015250565b60006138d8601883612da3565b91506138e3826138a2565b602082019050919050565b60006020820190508181036000830152613907816138cb565b9050919050565b7f4552433732313a2061646472657373207a65726f206973206e6f74206120766160008201527f6c6964206f776e65720000000000000000000000000000000000000000000000602082015250565b600061396a602983612da3565b91506139758261390e565b604082019050919050565b600060208201905081810360008301526139998161395d565b9050919050565b7f4f776e61626c653a206e6577206f776e657220697320746865207a65726f206160008201527f6464726573730000000000000000000000000000000000000000000000000000602082015250565b60006139fc602683612da3565b9150613a07826139a0565b604082019050919050565b60006020820190508181036000830152613a2b816139ef565b9050919050565b7f5265656e7472616e637947756172643a207265656e7472616e742063616c6c00600082015250565b6000613a68601f83612da3565b9150613a7382613a32565b602082019050919050565b60006020820190508181036000830152613a9781613a5b565b9050919050565b7f4552433732313a207472616e736665722066726f6d20696e636f72726563742060008201527f6f776e6572000000000000000000000000000000000000000000000000000000602082015250565b6000613afa602583612da3565b9150613b0582613a9e565b604082019050919050565b60006020820190508181036000830152613b2981613aed565b9050919050565b7f4552433732313a207472616e7366657220746f20746865207a65726f2061646460008201527f7265737300000000000000000000000000000000000000000000000000000000602082015250565b6000613b8c602483612da3565b9150613b9782613b30565b604082019050919050565b60006020820190508181036000830152613bbb81613b7f565b9050919050565b7f4f776e61626c653a2063616c6c6572206973206e6f7420746865206f776e6572600082015250565b6000613bf8602083612da3565b9150613c0382613bc2565b602082019050919050565b60006020820190508181036000830152613c2781613beb565b9050919050565b7f455243323938313a20726f79616c7479206665652077696c6c2065786365656460008201527f2073616c65507269636500000000000000000000000000000000000000000000602082015250565b6000613c8a602a83612da3565b9150613c9582613c2e565b604082019050919050565b60006020820190508181036000830152613cb981613c7d565b9050919050565b7f455243323938313a20696e76616c696420726563656976657200000000000000600082015250565b6000613cf6601983612da3565b9150613d0182613cc0565b602082019050919050565b60006020820190508181036000830152613d2581613ce9565b9050919050565b7f4552433732313a20617070726f766520746f2063616c6c657200000000000000600082015250565b6000613d62601983612da3565b9150613d6d82613d2c565b602082019050919050565b60006020820190508181036000830152613d9181613d55565b9050919050565b7f4552433732313a207472616e7366657220746f206e6f6e20455243373231526560008201527f63656976657220696d706c656d656e7465720000000000000000000000000000602082015250565b6000613df4603283612da3565b9150613dff82613d98565b604082019050919050565b60006020820190508181036000830152613e2381613de7565b9050919050565b600081519050919050565b600082825260208201905092915050565b6000613e5182613e2a565b613e5b8185613e35565b9350613e6b818560208601612db4565b613e7481612de7565b840191505092915050565b6000608082019050613e946000830187612ee8565b613ea16020830186612ee8565b613eae6040830185612f7e565b8181036060830152613ec08184613e46565b905095945050505050565b600081519050613eda81612d09565b92915050565b600060208284031215613ef657613ef5612cd3565b5b6000613f0484828501613ecb565b91505092915050565b7f4552433732313a206d696e7420746f20746865207a65726f2061646472657373600082015250565b6000613f43602083612da3565b9150613f4e82613f0d565b602082019050919050565b60006020820190508181036000830152613f7281613f36565b9050919050565b7f4552433732313a20746f6b656e20616c7265616479206d696e74656400000000600082015250565b6000613faf601c83612da3565b9150613fba82613f79565b602082019050919050565b60006020820190508181036000830152613fde81613fa2565b9050919050565b7f455243373231456e756d657261626c653a20636f6e736563757469766520747260008201527f616e7366657273206e6f7420737570706f727465640000000000000000000000602082015250565b6000614041603583612da3565b915061404c82613fe5565b604082019050919050565b6000602082019050818103600083015261407081614034565b9050919050565b600061408282612e53565b915061408d83612e53565b9250828210156140a05761409f613666565b5b828203905092915050565b7f4e487b7100000000000000000000000000000000000000000000000000000000600052603160045260246000fdfea26469706673582212209f71d6510932312fdc4a9b28c9ccf20ab1f0d8ddefbd1082f13af99ffda3cdef64736f6c63430008090033",
  "linkReferences": {},
  "deployedLinkReferences": {}
}