{
  "_format": "hh-sol-artifact-1",
  "contractName": "GenArtNFTContract",
  "sourceName": "contracts/GenArtNFTContract.sol",
  "abi": [
    {
      "inputs": [
        {
          "internalType": "uint256",
          "name": "_mint_price",
          "type": "uint256"
        },
        {
          "internalType": "uint256",
          "name": "_max_tokens",
          "type": "uint256"
        },
        {
          "internalType": "string",
          "name": "_base_uri",
          "type": "string"
        },
        {
          "internalType": "address",
          "name": "_royaltyArtist",
          "type": "address"
        },
        {
          "internalType": "uint96",
          "name": "_royaltyBasis",
          "type": "uint96"
        }
      ],
      "stateMutability": "nonpayable",
      "type": "constructor"
    },
    {
      "inputs": [],
      "name": "GenArtNFTContract__MaxSupplyReached",
      "type": "error"
    },
    {
      "inputs": [],
      "name": "GenArtNFTContract__ValueNotEqualPrice",
      "type": "error"
    },
    {
      "inputs": [],
      "name": "GenArtNFTContract__WrongAvenueForThisTransaction",
      "type": "error"
    },
    {
      "anonymous": false,
      "inputs": [
        {
          "indexed": true,
          "internalType": "address",
          "name": "owner",
          "type": "address"
        },
        {
          "indexed": true,
          "internalType": "address",
          "name": "approved",
          "type": "address"
        },
        {
          "indexed": true,
          "internalType": "uint256",
          "name": "tokenId",
          "type": "uint256"
        }
      ],
      "name": "Approval",
      "type": "event"
    },
    {
      "anonymous": false,
      "inputs": [
        {
          "indexed": true,
          "internalType": "address",
          "name": "owner",
          "type": "address"
        },
        {
          "indexed": true,
          "internalType": "address",
          "name": "operator",
          "type": "address"
        },
        {
          "indexed": false,
          "internalType": "bool",
          "name": "approved",
          "type": "bool"
        }
      ],
      "name": "ApprovalForAll",
      "type": "event"
    },
    {
      "anonymous": false,
      "inputs": [
        {
          "indexed": false,
          "internalType": "uint256",
          "name": "_fromTokenId",
          "type": "uint256"
        },
        {
          "indexed": false,
          "internalType": "uint256",
          "name": "_toTokenId",
          "type": "uint256"
        }
      ],
      "name": "BatchMetadataUpdate",
      "type": "event"
    },
    {
      "anonymous": false,
      "inputs": [
        {
          "indexed": false,
          "internalType": "address",
          "name": "owner",
          "type": "address"
        },
        {
          "indexed": false,
          "internalType": "uint256",
          "name": "amount",
          "type": "uint256"
        }
      ],
      "name": "FundsDistributed",
      "type": "event"
    },
    {
      "anonymous": false,
      "inputs": [
        {
          "indexed": false,
          "internalType": "uint256",
          "name": "_tokenId",
          "type": "uint256"
        }
      ],
      "name": "MetadataUpdate",
      "type": "event"
    },
    {
      "anonymous": false,
      "inputs": [
        {
          "indexed": false,
          "internalType": "uint256",
          "name": "tokenId",
          "type": "uint256"
        },
        {
          "indexed": false,
          "internalType": "address",
          "name": "owner",
          "type": "address"
        }
      ],
      "name": "MintingCompleted",
      "type": "event"
    },
    {
      "anonymous": false,
      "inputs": [
        {
          "indexed": true,
          "internalType": "address",
          "name": "previousOwner",
          "type": "address"
        },
        {
          "indexed": true,
          "internalType": "address",
          "name": "newOwner",
          "type": "address"
        }
      ],
      "name": "OwnershipTransferred",
      "type": "event"
    },
    {
      "anonymous": false,
      "inputs": [
        {
          "indexed": true,
          "internalType": "address",
          "name": "from",
          "type": "address"
        },
        {
          "indexed": true,
          "internalType": "address",
          "name": "to",
          "type": "address"
        },
        {
          "indexed": true,
          "internalType": "uint256",
          "name": "tokenId",
          "type": "uint256"
        }
      ],
      "name": "Transfer",
      "type": "event"
    },
    {
      "stateMutability": "payable",
      "type": "fallback"
    },
    {
      "inputs": [
        {
          "internalType": "address",
          "name": "to",
          "type": "address"
        },
        {
          "internalType": "uint256",
          "name": "tokenId",
          "type": "uint256"
        }
      ],
      "name": "approve",
      "outputs": [],
      "stateMutability": "nonpayable",
      "type": "function"
    },
    {
      "inputs": [
        {
          "internalType": "address",
          "name": "owner",
          "type": "address"
        }
      ],
      "name": "balanceOf",
      "outputs": [
        {
          "internalType": "uint256",
          "name": "",
          "type": "uint256"
        }
      ],
      "stateMutability": "view",
      "type": "function"
    },
    {
      "inputs": [
        {
          "internalType": "uint256",
          "name": "tokenId",
          "type": "uint256"
        }
      ],
      "name": "burn",
      "outputs": [],
      "stateMutability": "nonpayable",
      "type": "function"
    },
    {
      "inputs": [],
      "name": "contractURI",
      "outputs": [
        {
          "internalType": "string",
          "name": "",
          "type": "string"
        }
      ],
      "stateMutability": "view",
      "type": "function"
    },
    {
      "inputs": [
        {
          "internalType": "uint256",
          "name": "tokenId",
          "type": "uint256"
        }
      ],
      "name": "getApproved",
      "outputs": [
        {
          "internalType": "address",
          "name": "",
          "type": "address"
        }
      ],
      "stateMutability": "view",
      "type": "function"
    },
    {
      "inputs": [],
      "name": "getBaseURI",
      "outputs": [
        {
          "internalType": "string",
          "name": "",
          "type": "string"
        }
      ],
      "stateMutability": "view",
      "type": "function"
    },
    {
      "inputs": [],
      "name": "getMaxSupply",
      "outputs": [
        {
          "internalType": "uint256",
          "name": "",
          "type": "uint256"
        }
      ],
      "stateMutability": "view",
      "type": "function"
    },
    {
      "inputs": [],
      "name": "getMintPrice",
      "outputs": [
        {
          "internalType": "uint256",
          "name": "",
          "type": "uint256"
        }
      ],
      "stateMutability": "view",
      "type": "function"
    },
    {
      "inputs": [
        {
          "internalType": "address",
          "name": "owner",
          "type": "address"
        },
        {
          "internalType": "address",
          "name": "operator",
          "type": "address"
        }
      ],
      "name": "isApprovedForAll",
      "outputs": [
        {
          "internalType": "bool",
          "name": "",
          "type": "bool"
        }
      ],
      "stateMutability": "view",
      "type": "function"
    },
    {
      "inputs": [
        {
          "internalType": "string",
          "name": "uri",
          "type": "string"
        }
      ],
      "name": "mintTo",
      "outputs": [
        {
          "internalType": "uint256",
          "name": "",
          "type": "uint256"
        }
      ],
      "stateMutability": "payable",
      "type": "function"
    },
    {
      "inputs": [],
      "name": "name",
      "outputs": [
        {
          "internalType": "string",
          "name": "",
          "type": "string"
        }
      ],
      "stateMutability": "view",
      "type": "function"
    },
    {
      "inputs": [],
      "name": "owner",
      "outputs": [
        {
          "internalType": "address",
          "name": "",
          "type": "address"
        }
      ],
      "stateMutability": "view",
      "type": "function"
    },
    {
      "inputs": [
        {
          "internalType": "uint256",
          "name": "tokenId",
          "type": "uint256"
        }
      ],
      "name": "ownerOf",
      "outputs": [
        {
          "internalType": "address",
          "name": "",
          "type": "address"
        }
      ],
      "stateMutability": "view",
      "type": "function"
    },
    {
      "inputs": [],
      "name": "renounceOwnership",
      "outputs": [],
      "stateMutability": "nonpayable",
      "type": "function"
    },
    {
      "inputs": [
        {
          "internalType": "uint256",
          "name": "tokenId",
          "type": "uint256"
        },
        {
          "internalType": "uint256",
          "name": "salePrice",
          "type": "uint256"
        }
      ],
      "name": "royaltyInfo",
      "outputs": [
        {
          "internalType": "address",
          "name": "",
          "type": "address"
        },
        {
          "internalType": "uint256",
          "name": "",
          "type": "uint256"
        }
      ],
      "stateMutability": "view",
      "type": "function"
    },
    {
      "inputs": [
        {
          "internalType": "address",
          "name": "from",
          "type": "address"
        },
        {
          "internalType": "address",
          "name": "to",
          "type": "address"
        },
        {
          "internalType": "uint256",
          "name": "tokenId",
          "type": "uint256"
        }
      ],
      "name": "safeTransferFrom",
      "outputs": [],
      "stateMutability": "nonpayable",
      "type": "function"
    },
    {
      "inputs": [
        {
          "internalType": "address",
          "name": "from",
          "type": "address"
        },
        {
          "internalType": "address",
          "name": "to",
          "type": "address"
        },
        {
          "internalType": "uint256",
          "name": "tokenId",
          "type": "uint256"
        },
        {
          "internalType": "bytes",
          "name": "data",
          "type": "bytes"
        }
      ],
      "name": "safeTransferFrom",
      "outputs": [],
      "stateMutability": "nonpayable",
      "type": "function"
    },
    {
      "inputs": [
        {
          "internalType": "address",
          "name": "operator",
          "type": "address"
        },
        {
          "internalType": "bool",
          "name": "approved",
          "type": "bool"
        }
      ],
      "name": "setApprovalForAll",
      "outputs": [],
      "stateMutability": "nonpayable",
      "type": "function"
    },
    {
      "inputs": [
        {
          "internalType": "address",
          "name": "_receiver",
          "type": "address"
        },
        {
          "internalType": "uint96",
          "name": "feeNumerator",
          "type": "uint96"
        }
      ],
      "name": "setRoyalty",
      "outputs": [],
      "stateMutability": "nonpayable",
      "type": "function"
    },
    {
      "inputs": [
        {
          "internalType": "bytes4",
          "name": "interfaceId",
          "type": "bytes4"
        }
      ],
      "name": "supportsInterface",
      "outputs": [
        {
          "internalType": "bool",
          "name": "",
          "type": "bool"
        }
      ],
      "stateMutability": "view",
      "type": "function"
    },
    {
      "inputs": [],
      "name": "symbol",
      "outputs": [
        {
          "internalType": "string",
          "name": "",
          "type": "string"
        }
      ],
      "stateMutability": "view",
      "type": "function"
    },
    {
      "inputs": [
        {
          "internalType": "uint256",
          "name": "index",
          "type": "uint256"
        }
      ],
      "name": "tokenByIndex",
      "outputs": [
        {
          "internalType": "uint256",
          "name": "",
          "type": "uint256"
        }
      ],
      "stateMutability": "view",
      "type": "function"
    },
    {
      "inputs": [
        {
          "internalType": "address",
          "name": "owner",
          "type": "address"
        },
        {
          "internalType": "uint256",
          "name": "index",
          "type": "uint256"
        }
      ],
      "name": "tokenOfOwnerByIndex",
      "outputs": [
        {
          "internalType": "uint256",
          "name": "",
          "type": "uint256"
        }
      ],
      "stateMutability": "view",
      "type": "function"
    },
    {
      "inputs": [
        {
          "internalType": "uint256",
          "name": "tokenId",
          "type": "uint256"
        }
      ],
      "name": "tokenURI",
      "outputs": [
        {
          "internalType": "string",
          "name": "",
          "type": "string"
        }
      ],
      "stateMutability": "view",
      "type": "function"
    },
    {
      "inputs": [],
      "name": "totalSupply",
      "outputs": [
        {
          "internalType": "uint256",
          "name": "",
          "type": "uint256"
        }
      ],
      "stateMutability": "view",
      "type": "function"
    },
    {
      "inputs": [
        {
          "internalType": "address",
          "name": "from",
          "type": "address"
        },
        {
          "internalType": "address",
          "name": "to",
          "type": "address"
        },
        {
          "internalType": "uint256",
          "name": "tokenId",
          "type": "uint256"
        }
      ],
      "name": "transferFrom",
      "outputs": [],
      "stateMutability": "nonpayable",
      "type": "function"
    },
    {
      "inputs": [
        {
          "internalType": "address",
          "name": "newOwner",
          "type": "address"
        }
      ],
      "name": "transferOwnership",
      "outputs": [],
      "stateMutability": "nonpayable",
      "type": "function"
    },
    {
      "stateMutability": "payable",
      "type": "receive"
    }
  ],
  "bytecode": "0x60e06040523480156200001157600080fd5b5060405162004b7e38038062004b7e83398181016040528101906200003791906200072a565b6040518060400160405280601181526020017f47656e4172744e4654436f6e74726163740000000000000000000000000000008152506040518060400160405280600381526020017f434e4300000000000000000000000000000000000000000000000000000000008152508160029080519060200190620000bb929190620003f4565b508060039080519060200190620000d4929190620003f4565b505050620000f7620000eb6200017960201b60201c565b6200018160201b60201c565b6001600e8190555084608081815250508360a08181525050826010908051906020019062000127929190620003f4565b506200013a82826200024760201b60201c565b3373ffffffffffffffffffffffffffffffffffffffff1660c08173ffffffffffffffffffffffffffffffffffffffff1681525050505050505062000951565b600033905090565b6000600d60009054906101000a900473ffffffffffffffffffffffffffffffffffffffff16905081600d60006101000a81548173ffffffffffffffffffffffffffffffffffffffff021916908373ffffffffffffffffffffffffffffffffffffffff1602179055508173ffffffffffffffffffffffffffffffffffffffff168173ffffffffffffffffffffffffffffffffffffffff167f8be0079c531659141344cd1fd0a4f28419497f9722a3daafe3b4186f6b6457e060405160405180910390a35050565b62000257620003ea60201b60201c565b6bffffffffffffffffffffffff16816bffffffffffffffffffffffff161115620002b8576040517f08c379a0000000000000000000000000000000000000000000000000000000008152600401620002af9062000858565b60405180910390fd5b600073ffffffffffffffffffffffffffffffffffffffff168273ffffffffffffffffffffffffffffffffffffffff1614156200032b576040517f08c379a00000000000000000000000000000000000000000000000000000000081526004016200032290620008ca565b60405180910390fd5b60405180604001604052808373ffffffffffffffffffffffffffffffffffffffff168152602001826bffffffffffffffffffffffff168152506000808201518160000160006101000a81548173ffffffffffffffffffffffffffffffffffffffff021916908373ffffffffffffffffffffffffffffffffffffffff16021790555060208201518160000160146101000a8154816bffffffffffffffffffffffff02191690836bffffffffffffffffffffffff1602179055509050505050565b6000612710905090565b82805462000402906200091b565b90600052602060002090601f01602090048101928262000426576000855562000472565b82601f106200044157805160ff191683800117855562000472565b8280016001018555821562000472579182015b828111156200047157825182559160200191906001019062000454565b5b50905062000481919062000485565b5090565b5b80821115620004a057600081600090555060010162000486565b5090565b6000604051905090565b600080fd5b600080fd5b6000819050919050565b620004cd81620004b8565b8114620004d957600080fd5b50565b600081519050620004ed81620004c2565b92915050565b600080fd5b600080fd5b6000601f19601f8301169050919050565b7f4e487b7100000000000000000000000000000000000000000000000000000000600052604160045260246000fd5b6200054882620004fd565b810181811067ffffffffffffffff821117156200056a57620005696200050e565b5b80604052505050565b60006200057f620004a4565b90506200058d82826200053d565b919050565b600067ffffffffffffffff821115620005b057620005af6200050e565b5b620005bb82620004fd565b9050602081019050919050565b60005b83811015620005e8578082015181840152602081019050620005cb565b83811115620005f8576000848401525b50505050565b6000620006156200060f8462000592565b62000573565b905082815260208101848484011115620006345762000633620004f8565b5b62000641848285620005c8565b509392505050565b600082601f830112620006615762000660620004f3565b5b815162000673848260208601620005fe565b91505092915050565b600073ffffffffffffffffffffffffffffffffffffffff82169050919050565b6000620006a9826200067c565b9050919050565b620006bb816200069c565b8114620006c757600080fd5b50565b600081519050620006db81620006b0565b92915050565b60006bffffffffffffffffffffffff82169050919050565b6200070481620006e1565b81146200071057600080fd5b50565b6000815190506200072481620006f9565b92915050565b600080600080600060a08688031215620007495762000748620004ae565b5b60006200075988828901620004dc565b95505060206200076c88828901620004dc565b945050604086015167ffffffffffffffff81111562000790576200078f620004b3565b5b6200079e8882890162000649565b9350506060620007b188828901620006ca565b9250506080620007c48882890162000713565b9150509295509295909350565b600082825260208201905092915050565b7f455243323938313a20726f79616c7479206665652077696c6c2065786365656460008201527f2073616c65507269636500000000000000000000000000000000000000000000602082015250565b600062000840602a83620007d1565b91506200084d82620007e2565b604082019050919050565b60006020820190508181036000830152620008738162000831565b9050919050565b7f455243323938313a20696e76616c696420726563656976657200000000000000600082015250565b6000620008b2601983620007d1565b9150620008bf826200087a565b602082019050919050565b60006020820190508181036000830152620008e581620008a3565b9050919050565b7f4e487b7100000000000000000000000000000000000000000000000000000000600052602260045260246000fd5b600060028204905060018216806200093457607f821691505b602082108114156200094b576200094a620008ec565b5b50919050565b60805160a05160c0516141e86200099660003960008181610a5e0152610ae601526000818161093f0152610e9f015260008181610998015261120501526141e86000f3fe6080604052600436106101a05760003560e01c80636352211e116100ec578063a22cb4651161008a578063c87b56dd11610064578063c87b56dd14610648578063e8a3d48514610685578063e985e9c5146106b0578063f2fde38b146106ed576101d7565b8063a22cb465146105cb578063a7f93ebd146105f4578063b88d4fde1461061f576101d7565b8063715018a6116100c6578063715018a6146105355780638da5cb5b1461054c5780638f2fc60b1461057757806395d89b41146105a0576101d7565b80636352211e1461049057806370a08231146104cd578063714c53981461050a576101d7565b806323b872dd1161015957806342842e0e1161013357806342842e0e146103d657806342966c68146103ff5780634c0f38c2146104285780634f6ccce714610453576101d7565b806323b872dd146103325780632a55205a1461035b5780632f745c5914610399576101d7565b806301ffc9a71461020957806306fdde0314610246578063081812fc14610271578063095ea7b3146102ae57806318160ddd146102d757806318b9948d14610302576101d7565b366101d7576040517f81899f3100000000000000000000000000000000000000000000000000000000815260040160405180910390fd5b6040517f81899f3100000000000000000000000000000000000000000000000000000000815260040160405180910390fd5b34801561021557600080fd5b50610230600480360381019061022b9190612e0d565b610716565b60405161023d9190612e55565b60405180910390f35b34801561025257600080fd5b5061025b610728565b6040516102689190612f09565b60405180910390f35b34801561027d57600080fd5b5061029860048036038101906102939190612f61565b6107ba565b6040516102a59190612fcf565b60405180910390f35b3480156102ba57600080fd5b506102d560048036038101906102d09190613016565b610800565b005b3480156102e357600080fd5b506102ec610918565b6040516102f99190613065565b60405180910390f35b61031c600480360381019061031791906130e5565b610925565b6040516103299190613065565b60405180910390f35b34801561033e57600080fd5b5061035960048036038101906103549190613132565b610b2f565b005b34801561036757600080fd5b50610382600480360381019061037d9190613185565b610b8f565b6040516103909291906131c5565b60405180910390f35b3480156103a557600080fd5b506103c060048036038101906103bb9190613016565b610d7a565b6040516103cd9190613065565b60405180910390f35b3480156103e257600080fd5b506103fd60048036038101906103f89190613132565b610e1f565b005b34801561040b57600080fd5b5061042660048036038101906104219190612f61565b610e3f565b005b34801561043457600080fd5b5061043d610e9b565b60405161044a9190613065565b60405180910390f35b34801561045f57600080fd5b5061047a60048036038101906104759190612f61565b610ec3565b6040516104879190613065565b60405180910390f35b34801561049c57600080fd5b506104b760048036038101906104b29190612f61565b610f34565b6040516104c49190612fcf565b60405180910390f35b3480156104d957600080fd5b506104f460048036038101906104ef91906131ee565b610fbb565b6040516105019190613065565b60405180910390f35b34801561051657600080fd5b5061051f611073565b60405161052c9190612f09565b60405180910390f35b34801561054157600080fd5b5061054a611105565b005b34801561055857600080fd5b50610561611119565b60405161056e9190612fcf565b60405180910390f35b34801561058357600080fd5b5061059e6004803603810190610599919061325f565b611143565b005b3480156105ac57600080fd5b506105b5611159565b6040516105c29190612f09565b60405180910390f35b3480156105d757600080fd5b506105f260048036038101906105ed91906132cb565b6111eb565b005b34801561060057600080fd5b50610609611201565b6040516106169190613065565b60405180910390f35b34801561062b57600080fd5b506106466004803603810190610641919061343b565b611229565b005b34801561065457600080fd5b5061066f600480360381019061066a9190612f61565b61128b565b60405161067c9190612f09565b60405180910390f35b34801561069157600080fd5b5061069a611328565b6040516106a79190612f09565b60405180910390f35b3480156106bc57600080fd5b506106d760048036038101906106d291906134be565b6113ba565b6040516106e49190612e55565b60405180910390f35b3480156106f957600080fd5b50610714600480360381019061070f91906131ee565b61144e565b005b6000610721826114d2565b9050919050565b6060600280546107379061352d565b80601f01602080910402602001604051908101604052809291908181526020018280546107639061352d565b80156107b05780601f10610785576101008083540402835291602001916107b0565b820191906000526020600020905b81548152906001019060200180831161079357829003601f168201915b5050505050905090565b60006107c5826114e4565b6006600083815260200190815260200160002060009054906101000a900473ffffffffffffffffffffffffffffffffffffffff169050919050565b600061080b82610f34565b90508073ffffffffffffffffffffffffffffffffffffffff168373ffffffffffffffffffffffffffffffffffffffff16141561087c576040517f08c379a0000000000000000000000000000000000000000000000000000000008152600401610873906135d1565b60405180910390fd5b8073ffffffffffffffffffffffffffffffffffffffff1661089b61152f565b73ffffffffffffffffffffffffffffffffffffffff1614806108ca57506108c9816108c461152f565b6113ba565b5b610909576040517f08c379a000000000000000000000000000000000000000000000000000000000815260040161090090613663565b60405180910390fd5b6109138383611537565b505050565b6000600a80549050905090565b600061092f6115f0565b600061093b600f611640565b90507f00000000000000000000000000000000000000000000000000000000000000008110610996576040517f3ca6dd3800000000000000000000000000000000000000000000000000000000815260040160405180910390fd5b7f000000000000000000000000000000000000000000000000000000000000000034146109ef576040517fed9d758800000000000000000000000000000000000000000000000000000000815260040160405180910390fd5b6109f9600f61164e565b6000610a05600f611640565b9050610a113382611664565b7f19003791b5fbb7a5686dd3ea0edfc0712c3e3dcf415e067038698320ced6d0738133604051610a42929190613683565b60405180910390a1848460119190610a5b929190612cbe565b507f000000000000000000000000000000000000000000000000000000000000000073ffffffffffffffffffffffffffffffffffffffff166108fc479081150290604051600060405180830381858888f19350505050158015610ac2573d6000803e3d6000fd5b507f26536799ace2c3dbe12e638ec3ade6b4173dcf1289be0a58d51a5003015649bd7f000000000000000000000000000000000000000000000000000000000000000034604051610b149291906131c5565b60405180910390a18092505050610b29611682565b92915050565b610b40610b3a61152f565b8261168c565b610b7f576040517f08c379a0000000000000000000000000000000000000000000000000000000008152600401610b769061371e565b60405180910390fd5b610b8a838383611721565b505050565b6000806000600160008681526020019081526020016000206040518060400160405290816000820160009054906101000a900473ffffffffffffffffffffffffffffffffffffffff1673ffffffffffffffffffffffffffffffffffffffff1673ffffffffffffffffffffffffffffffffffffffff1681526020016000820160149054906101000a90046bffffffffffffffffffffffff166bffffffffffffffffffffffff166bffffffffffffffffffffffff16815250509050600073ffffffffffffffffffffffffffffffffffffffff16816000015173ffffffffffffffffffffffffffffffffffffffff161415610d255760006040518060400160405290816000820160009054906101000a900473ffffffffffffffffffffffffffffffffffffffff1673ffffffffffffffffffffffffffffffffffffffff1673ffffffffffffffffffffffffffffffffffffffff1681526020016000820160149054906101000a90046bffffffffffffffffffffffff166bffffffffffffffffffffffff166bffffffffffffffffffffffff168152505090505b6000610d2f611a1b565b6bffffffffffffffffffffffff1682602001516bffffffffffffffffffffffff1686610d5b919061376d565b610d6591906137f6565b90508160000151819350935050509250929050565b6000610d8583610fbb565b8210610dc6576040517f08c379a0000000000000000000000000000000000000000000000000000000008152600401610dbd90613899565b60405180910390fd5b600860008473ffffffffffffffffffffffffffffffffffffffff1673ffffffffffffffffffffffffffffffffffffffff168152602001908152602001600020600083815260200190815260200160002054905092915050565b610e3a83838360405180602001604052806000815250611229565b505050565b610e50610e4a61152f565b8261168c565b610e8f576040517f08c379a0000000000000000000000000000000000000000000000000000000008152600401610e869061371e565b60405180910390fd5b610e9881611a25565b50565b60007f0000000000000000000000000000000000000000000000000000000000000000905090565b6000610ecd610918565b8210610f0e576040517f08c379a0000000000000000000000000000000000000000000000000000000008152600401610f059061392b565b60405180910390fd5b600a8281548110610f2257610f2161394b565b5b90600052602060002001549050919050565b600080610f4083611a31565b9050600073ffffffffffffffffffffffffffffffffffffffff168173ffffffffffffffffffffffffffffffffffffffff161415610fb2576040517f08c379a0000000000000000000000000000000000000000000000000000000008152600401610fa9906139c6565b60405180910390fd5b80915050919050565b60008073ffffffffffffffffffffffffffffffffffffffff168273ffffffffffffffffffffffffffffffffffffffff16141561102c576040517f08c379a000000000000000000000000000000000000000000000000000000000815260040161102390613a58565b60405180910390fd5b600560008373ffffffffffffffffffffffffffffffffffffffff1673ffffffffffffffffffffffffffffffffffffffff168152602001908152602001600020549050919050565b6060601080546110829061352d565b80601f01602080910402602001604051908101604052809291908181526020018280546110ae9061352d565b80156110fb5780601f106110d0576101008083540402835291602001916110fb565b820191906000526020600020905b8154815290600101906020018083116110de57829003601f168201915b5050505050905090565b61110d611a6e565b6111176000611aec565b565b6000600d60009054906101000a900473ffffffffffffffffffffffffffffffffffffffff16905090565b61114b611a6e565b6111558282611bb2565b5050565b6060600380546111689061352d565b80601f01602080910402602001604051908101604052809291908181526020018280546111949061352d565b80156111e15780601f106111b6576101008083540402835291602001916111e1565b820191906000526020600020905b8154815290600101906020018083116111c457829003601f168201915b5050505050905090565b6111fd6111f661152f565b8383611d47565b5050565b60007f0000000000000000000000000000000000000000000000000000000000000000905090565b61123a61123461152f565b8361168c565b611279576040517f08c379a00000000000000000000000000000000000000000000000000000000081526004016112709061371e565b60405180910390fd5b61128584848484611eb4565b50505050565b6060611296826114e4565b601180546112a39061352d565b80601f01602080910402602001604051908101604052809291908181526020018280546112cf9061352d565b801561131c5780601f106112f15761010080835404028352916020019161131c565b820191906000526020600020905b8154815290600101906020018083116112ff57829003601f168201915b50505050509050919050565b6060601080546113379061352d565b80601f01602080910402602001604051908101604052809291908181526020018280546113639061352d565b80156113b05780601f10611385576101008083540402835291602001916113b0565b820191906000526020600020905b81548152906001019060200180831161139357829003601f168201915b5050505050905090565b6000600760008473ffffffffffffffffffffffffffffffffffffffff1673ffffffffffffffffffffffffffffffffffffffff16815260200190815260200160002060008373ffffffffffffffffffffffffffffffffffffffff1673ffffffffffffffffffffffffffffffffffffffff16815260200190815260200160002060009054906101000a900460ff16905092915050565b611456611a6e565b600073ffffffffffffffffffffffffffffffffffffffff168173ffffffffffffffffffffffffffffffffffffffff1614156114c6576040517f08c379a00000000000000000000000000000000000000000000000000000000081526004016114bd90613aea565b60405180910390fd5b6114cf81611aec565b50565b60006114dd82611f10565b9050919050565b6114ed81611f71565b61152c576040517f08c379a0000000000000000000000000000000000000000000000000000000008152600401611523906139c6565b60405180910390fd5b50565b600033905090565b816006600083815260200190815260200160002060006101000a81548173ffffffffffffffffffffffffffffffffffffffff021916908373ffffffffffffffffffffffffffffffffffffffff160217905550808273ffffffffffffffffffffffffffffffffffffffff166115aa83610f34565b73ffffffffffffffffffffffffffffffffffffffff167f8c5be1e5ebec7d5bd14f71427d1e84f3dd0314c0f7b2291e5b200ac8c7c3b92560405160405180910390a45050565b6002600e541415611636576040517f08c379a000000000000000000000000000000000000000000000000000000000815260040161162d90613b56565b60405180910390fd5b6002600e81905550565b600081600001549050919050565b6001816000016000828254019250508190555050565b61167e828260405180602001604052806000815250611fb2565b5050565b6001600e81905550565b60008061169883610f34565b90508073ffffffffffffffffffffffffffffffffffffffff168473ffffffffffffffffffffffffffffffffffffffff1614806116da57506116d981856113ba565b5b8061171857508373ffffffffffffffffffffffffffffffffffffffff16611700846107ba565b73ffffffffffffffffffffffffffffffffffffffff16145b91505092915050565b8273ffffffffffffffffffffffffffffffffffffffff1661174182610f34565b73ffffffffffffffffffffffffffffffffffffffff1614611797576040517f08c379a000000000000000000000000000000000000000000000000000000000815260040161178e90613be8565b60405180910390fd5b600073ffffffffffffffffffffffffffffffffffffffff168273ffffffffffffffffffffffffffffffffffffffff161415611807576040517f08c379a00000000000000000000000000000000000000000000000000000000081526004016117fe90613c7a565b60405180910390fd5b611814838383600161200d565b8273ffffffffffffffffffffffffffffffffffffffff1661183482610f34565b73ffffffffffffffffffffffffffffffffffffffff161461188a576040517f08c379a000000000000000000000000000000000000000000000000000000000815260040161188190613be8565b60405180910390fd5b6006600082815260200190815260200160002060006101000a81549073ffffffffffffffffffffffffffffffffffffffff02191690556001600560008573ffffffffffffffffffffffffffffffffffffffff1673ffffffffffffffffffffffffffffffffffffffff168152602001908152602001600020600082825403925050819055506001600560008473ffffffffffffffffffffffffffffffffffffffff1673ffffffffffffffffffffffffffffffffffffffff16815260200190815260200160002060008282540192505081905550816004600083815260200190815260200160002060006101000a81548173ffffffffffffffffffffffffffffffffffffffff021916908373ffffffffffffffffffffffffffffffffffffffff160217905550808273ffffffffffffffffffffffffffffffffffffffff168473ffffffffffffffffffffffffffffffffffffffff167fddf252ad1be2c89b69c2b068fc378daa952ba7f163c4a11628f55a4df523b3ef60405160405180910390a4611a16838383600161201f565b505050565b6000612710905090565b611a2e81612025565b50565b60006004600083815260200190815260200160002060009054906101000a900473ffffffffffffffffffffffffffffffffffffffff169050919050565b611a7661152f565b73ffffffffffffffffffffffffffffffffffffffff16611a94611119565b73ffffffffffffffffffffffffffffffffffffffff1614611aea576040517f08c379a0000000000000000000000000000000000000000000000000000000008152600401611ae190613ce6565b60405180910390fd5b565b6000600d60009054906101000a900473ffffffffffffffffffffffffffffffffffffffff16905081600d60006101000a81548173ffffffffffffffffffffffffffffffffffffffff021916908373ffffffffffffffffffffffffffffffffffffffff1602179055508173ffffffffffffffffffffffffffffffffffffffff168173ffffffffffffffffffffffffffffffffffffffff167f8be0079c531659141344cd1fd0a4f28419497f9722a3daafe3b4186f6b6457e060405160405180910390a35050565b611bba611a1b565b6bffffffffffffffffffffffff16816bffffffffffffffffffffffff161115611c18576040517f08c379a0000000000000000000000000000000000000000000000000000000008152600401611c0f90613d78565b60405180910390fd5b600073ffffffffffffffffffffffffffffffffffffffff168273ffffffffffffffffffffffffffffffffffffffff161415611c88576040517f08c379a0000000000000000000000000000000000000000000000000000000008152600401611c7f90613de4565b60405180910390fd5b60405180604001604052808373ffffffffffffffffffffffffffffffffffffffff168152602001826bffffffffffffffffffffffff168152506000808201518160000160006101000a81548173ffffffffffffffffffffffffffffffffffffffff021916908373ffffffffffffffffffffffffffffffffffffffff16021790555060208201518160000160146101000a8154816bffffffffffffffffffffffff02191690836bffffffffffffffffffffffff1602179055509050505050565b8173ffffffffffffffffffffffffffffffffffffffff168373ffffffffffffffffffffffffffffffffffffffff161415611db6576040517f08c379a0000000000000000000000000000000000000000000000000000000008152600401611dad90613e50565b60405180910390fd5b80600760008573ffffffffffffffffffffffffffffffffffffffff1673ffffffffffffffffffffffffffffffffffffffff16815260200190815260200160002060008473ffffffffffffffffffffffffffffffffffffffff1673ffffffffffffffffffffffffffffffffffffffff16815260200190815260200160002060006101000a81548160ff0219169083151502179055508173ffffffffffffffffffffffffffffffffffffffff168373ffffffffffffffffffffffffffffffffffffffff167f17307eab39ab6107e8899845ad3d59bd9653f200f220920489ca2b5937696c3183604051611ea79190612e55565b60405180910390a3505050565b611ebf848484611721565b611ecb8484848461203a565b611f0a576040517f08c379a0000000000000000000000000000000000000000000000000000000008152600401611f0190613ee2565b60405180910390fd5b50505050565b6000634906490660e01b7bffffffffffffffffffffffffffffffffffffffffffffffffffffffff1916827bffffffffffffffffffffffffffffffffffffffffffffffffffffffff19161480611f6a5750611f69826121d1565b5b9050919050565b60008073ffffffffffffffffffffffffffffffffffffffff16611f9383611a31565b73ffffffffffffffffffffffffffffffffffffffff1614159050919050565b611fbc838361224b565b611fc9600084848461203a565b612008576040517f08c379a0000000000000000000000000000000000000000000000000000000008152600401611fff90613ee2565b60405180910390fd5b505050565b61201984848484612469565b50505050565b50505050565b61202e816125c9565b6120378161261c565b50565b600061205b8473ffffffffffffffffffffffffffffffffffffffff1661267b565b156121c4578373ffffffffffffffffffffffffffffffffffffffff1663150b7a0261208461152f565b8786866040518563ffffffff1660e01b81526004016120a69493929190613f57565b602060405180830381600087803b1580156120c057600080fd5b505af19250505080156120f157506040513d601f19601f820116820180604052508101906120ee9190613fb8565b60015b612174573d8060008114612121576040519150601f19603f3d011682016040523d82523d6000602084013e612126565b606091505b5060008151141561216c576040517f08c379a000000000000000000000000000000000000000000000000000000000815260040161216390613ee2565b60405180910390fd5b805181602001fd5b63150b7a0260e01b7bffffffffffffffffffffffffffffffffffffffffffffffffffffffff1916817bffffffffffffffffffffffffffffffffffffffffffffffffffffffff1916149150506121c9565b600190505b949350505050565b60007f780e9d63000000000000000000000000000000000000000000000000000000007bffffffffffffffffffffffffffffffffffffffffffffffffffffffff1916827bffffffffffffffffffffffffffffffffffffffffffffffffffffffff1916148061224457506122438261269e565b5b9050919050565b600073ffffffffffffffffffffffffffffffffffffffff168273ffffffffffffffffffffffffffffffffffffffff1614156122bb576040517f08c379a00000000000000000000000000000000000000000000000000000000081526004016122b290614031565b60405180910390fd5b6122c481611f71565b15612304576040517f08c379a00000000000000000000000000000000000000000000000000000000081526004016122fb9061409d565b60405180910390fd5b61231260008383600161200d565b61231b81611f71565b1561235b576040517f08c379a00000000000000000000000000000000000000000000000000000000081526004016123529061409d565b60405180910390fd5b6001600560008473ffffffffffffffffffffffffffffffffffffffff1673ffffffffffffffffffffffffffffffffffffffff16815260200190815260200160002060008282540192505081905550816004600083815260200190815260200160002060006101000a81548173ffffffffffffffffffffffffffffffffffffffff021916908373ffffffffffffffffffffffffffffffffffffffff160217905550808273ffffffffffffffffffffffffffffffffffffffff16600073ffffffffffffffffffffffffffffffffffffffff167fddf252ad1be2c89b69c2b068fc378daa952ba7f163c4a11628f55a4df523b3ef60405160405180910390a461246560008383600161201f565b5050565b61247584848484612780565b60018111156124b9576040517f08c379a00000000000000000000000000000000000000000000000000000000081526004016124b09061412f565b60405180910390fd5b6000829050600073ffffffffffffffffffffffffffffffffffffffff168573ffffffffffffffffffffffffffffffffffffffff161415612501576124fc81612786565b612540565b8373ffffffffffffffffffffffffffffffffffffffff168573ffffffffffffffffffffffffffffffffffffffff161461253f5761253e85826127cf565b5b5b600073ffffffffffffffffffffffffffffffffffffffff168473ffffffffffffffffffffffffffffffffffffffff1614156125835761257e8161293c565b6125c2565b8473ffffffffffffffffffffffffffffffffffffffff168473ffffffffffffffffffffffffffffffffffffffff16146125c1576125c08482612a0d565b5b5b5050505050565b6125d281612a8c565b6000600c600083815260200190815260200160002080546125f29061352d565b90501461261957600c600082815260200190815260200160002060006126189190612d44565b5b50565b60016000828152602001908152602001600020600080820160006101000a81549073ffffffffffffffffffffffffffffffffffffffff02191690556000820160146101000a8154906bffffffffffffffffffffffff0219169055505050565b6000808273ffffffffffffffffffffffffffffffffffffffff163b119050919050565b60007f80ac58cd000000000000000000000000000000000000000000000000000000007bffffffffffffffffffffffffffffffffffffffffffffffffffffffff1916827bffffffffffffffffffffffffffffffffffffffffffffffffffffffff1916148061276957507f5b5e139f000000000000000000000000000000000000000000000000000000007bffffffffffffffffffffffffffffffffffffffffffffffffffffffff1916827bffffffffffffffffffffffffffffffffffffffffffffffffffffffff1916145b80612779575061277882612bda565b5b9050919050565b50505050565b600a80549050600b600083815260200190815260200160002081905550600a81908060018154018082558091505060019003906000526020600020016000909190919091505550565b600060016127dc84610fbb565b6127e6919061414f565b90506000600960008481526020019081526020016000205490508181146128cb576000600860008673ffffffffffffffffffffffffffffffffffffffff1673ffffffffffffffffffffffffffffffffffffffff168152602001908152602001600020600084815260200190815260200160002054905080600860008773ffffffffffffffffffffffffffffffffffffffff1673ffffffffffffffffffffffffffffffffffffffff168152602001908152602001600020600084815260200190815260200160002081905550816009600083815260200190815260200160002081905550505b6009600084815260200190815260200160002060009055600860008573ffffffffffffffffffffffffffffffffffffffff1673ffffffffffffffffffffffffffffffffffffffff16815260200190815260200160002060008381526020019081526020016000206000905550505050565b60006001600a80549050612950919061414f565b90506000600b60008481526020019081526020016000205490506000600a83815481106129805761297f61394b565b5b9060005260206000200154905080600a83815481106129a2576129a161394b565b5b906000526020600020018190555081600b600083815260200190815260200160002081905550600b600085815260200190815260200160002060009055600a8054806129f1576129f0614183565b5b6001900381819060005260206000200160009055905550505050565b6000612a1883610fbb565b905081600860008573ffffffffffffffffffffffffffffffffffffffff1673ffffffffffffffffffffffffffffffffffffffff168152602001908152602001600020600083815260200190815260200160002081905550806009600084815260200190815260200160002081905550505050565b6000612a9782610f34565b9050612aa781600084600161200d565b612ab082610f34565b90506006600083815260200190815260200160002060006101000a81549073ffffffffffffffffffffffffffffffffffffffff02191690556001600560008373ffffffffffffffffffffffffffffffffffffffff1673ffffffffffffffffffffffffffffffffffffffff168152602001908152602001600020600082825403925050819055506004600083815260200190815260200160002060006101000a81549073ffffffffffffffffffffffffffffffffffffffff021916905581600073ffffffffffffffffffffffffffffffffffffffff168273ffffffffffffffffffffffffffffffffffffffff167fddf252ad1be2c89b69c2b068fc378daa952ba7f163c4a11628f55a4df523b3ef60405160405180910390a4612bd681600084600161201f565b5050565b60007f2a55205a000000000000000000000000000000000000000000000000000000007bffffffffffffffffffffffffffffffffffffffffffffffffffffffff1916827bffffffffffffffffffffffffffffffffffffffffffffffffffffffff19161480612c4d5750612c4c82612c54565b5b9050919050565b60007f01ffc9a7000000000000000000000000000000000000000000000000000000007bffffffffffffffffffffffffffffffffffffffffffffffffffffffff1916827bffffffffffffffffffffffffffffffffffffffffffffffffffffffff1916149050919050565b828054612cca9061352d565b90600052602060002090601f016020900481019282612cec5760008555612d33565b82601f10612d0557803560ff1916838001178555612d33565b82800160010185558215612d33579182015b82811115612d32578235825591602001919060010190612d17565b5b509050612d409190612d84565b5090565b508054612d509061352d565b6000825580601f10612d625750612d81565b601f016020900490600052602060002090810190612d809190612d84565b5b50565b5b80821115612d9d576000816000905550600101612d85565b5090565b6000604051905090565b600080fd5b600080fd5b60007fffffffff0000000000000000000000000000000000000000000000000000000082169050919050565b612dea81612db5565b8114612df557600080fd5b50565b600081359050612e0781612de1565b92915050565b600060208284031215612e2357612e22612dab565b5b6000612e3184828501612df8565b91505092915050565b60008115159050919050565b612e4f81612e3a565b82525050565b6000602082019050612e6a6000830184612e46565b92915050565b600081519050919050565b600082825260208201905092915050565b60005b83811015612eaa578082015181840152602081019050612e8f565b83811115612eb9576000848401525b50505050565b6000601f19601f8301169050919050565b6000612edb82612e70565b612ee58185612e7b565b9350612ef5818560208601612e8c565b612efe81612ebf565b840191505092915050565b60006020820190508181036000830152612f238184612ed0565b905092915050565b6000819050919050565b612f3e81612f2b565b8114612f4957600080fd5b50565b600081359050612f5b81612f35565b92915050565b600060208284031215612f7757612f76612dab565b5b6000612f8584828501612f4c565b91505092915050565b600073ffffffffffffffffffffffffffffffffffffffff82169050919050565b6000612fb982612f8e565b9050919050565b612fc981612fae565b82525050565b6000602082019050612fe46000830184612fc0565b92915050565b612ff381612fae565b8114612ffe57600080fd5b50565b60008135905061301081612fea565b92915050565b6000806040838503121561302d5761302c612dab565b5b600061303b85828601613001565b925050602061304c85828601612f4c565b9150509250929050565b61305f81612f2b565b82525050565b600060208201905061307a6000830184613056565b92915050565b600080fd5b600080fd5b600080fd5b60008083601f8401126130a5576130a4613080565b5b8235905067ffffffffffffffff8111156130c2576130c1613085565b5b6020830191508360018202830111156130de576130dd61308a565b5b9250929050565b600080602083850312156130fc576130fb612dab565b5b600083013567ffffffffffffffff81111561311a57613119612db0565b5b6131268582860161308f565b92509250509250929050565b60008060006060848603121561314b5761314a612dab565b5b600061315986828701613001565b935050602061316a86828701613001565b925050604061317b86828701612f4c565b9150509250925092565b6000806040838503121561319c5761319b612dab565b5b60006131aa85828601612f4c565b92505060206131bb85828601612f4c565b9150509250929050565b60006040820190506131da6000830185612fc0565b6131e76020830184613056565b9392505050565b60006020828403121561320457613203612dab565b5b600061321284828501613001565b91505092915050565b60006bffffffffffffffffffffffff82169050919050565b61323c8161321b565b811461324757600080fd5b50565b60008135905061325981613233565b92915050565b6000806040838503121561327657613275612dab565b5b600061328485828601613001565b92505060206132958582860161324a565b9150509250929050565b6132a881612e3a565b81146132b357600080fd5b50565b6000813590506132c58161329f565b92915050565b600080604083850312156132e2576132e1612dab565b5b60006132f085828601613001565b9250506020613301858286016132b6565b9150509250929050565b600080fd5b7f4e487b7100000000000000000000000000000000000000000000000000000000600052604160045260246000fd5b61334882612ebf565b810181811067ffffffffffffffff8211171561336757613366613310565b5b80604052505050565b600061337a612da1565b9050613386828261333f565b919050565b600067ffffffffffffffff8211156133a6576133a5613310565b5b6133af82612ebf565b9050602081019050919050565b82818337600083830152505050565b60006133de6133d98461338b565b613370565b9050828152602081018484840111156133fa576133f961330b565b5b6134058482856133bc565b509392505050565b600082601f83011261342257613421613080565b5b81356134328482602086016133cb565b91505092915050565b6000806000806080858703121561345557613454612dab565b5b600061346387828801613001565b945050602061347487828801613001565b935050604061348587828801612f4c565b925050606085013567ffffffffffffffff8111156134a6576134a5612db0565b5b6134b28782880161340d565b91505092959194509250565b600080604083850312156134d5576134d4612dab565b5b60006134e385828601613001565b92505060206134f485828601613001565b9150509250929050565b7f4e487b7100000000000000000000000000000000000000000000000000000000600052602260045260246000fd5b6000600282049050600182168061354557607f821691505b60208210811415613559576135586134fe565b5b50919050565b7f4552433732313a20617070726f76616c20746f2063757272656e74206f776e6560008201527f7200000000000000000000000000000000000000000000000000000000000000602082015250565b60006135bb602183612e7b565b91506135c68261355f565b604082019050919050565b600060208201905081810360008301526135ea816135ae565b9050919050565b7f4552433732313a20617070726f76652063616c6c6572206973206e6f7420746f60008201527f6b656e206f776e6572206f7220617070726f76656420666f7220616c6c000000602082015250565b600061364d603d83612e7b565b9150613658826135f1565b604082019050919050565b6000602082019050818103600083015261367c81613640565b9050919050565b60006040820190506136986000830185613056565b6136a56020830184612fc0565b9392505050565b7f4552433732313a2063616c6c6572206973206e6f7420746f6b656e206f776e6560008201527f72206f7220617070726f76656400000000000000000000000000000000000000602082015250565b6000613708602d83612e7b565b9150613713826136ac565b604082019050919050565b60006020820190508181036000830152613737816136fb565b9050919050565b7f4e487b7100000000000000000000000000000000000000000000000000000000600052601160045260246000fd5b600061377882612f2b565b915061378383612f2b565b9250817fffffffffffffffffffffffffffffffffffffffffffffffffffffffffffffffff04831182151516156137bc576137bb61373e565b5b828202905092915050565b7f4e487b7100000000000000000000000000000000000000000000000000000000600052601260045260246000fd5b600061380182612f2b565b915061380c83612f2b565b92508261381c5761381b6137c7565b5b828204905092915050565b7f455243373231456e756d657261626c653a206f776e657220696e646578206f7560008201527f74206f6620626f756e6473000000000000000000000000000000000000000000602082015250565b6000613883602b83612e7b565b915061388e82613827565b604082019050919050565b600060208201905081810360008301526138b281613876565b9050919050565b7f455243373231456e756d657261626c653a20676c6f62616c20696e646578206f60008201527f7574206f6620626f756e64730000000000000000000000000000000000000000602082015250565b6000613915602c83612e7b565b9150613920826138b9565b604082019050919050565b6000602082019050818103600083015261394481613908565b9050919050565b7f4e487b7100000000000000000000000000000000000000000000000000000000600052603260045260246000fd5b7f4552433732313a20696e76616c696420746f6b656e2049440000000000000000600082015250565b60006139b0601883612e7b565b91506139bb8261397a565b602082019050919050565b600060208201905081810360008301526139df816139a3565b9050919050565b7f4552433732313a2061646472657373207a65726f206973206e6f74206120766160008201527f6c6964206f776e65720000000000000000000000000000000000000000000000602082015250565b6000613a42602983612e7b565b9150613a4d826139e6565b604082019050919050565b60006020820190508181036000830152613a7181613a35565b9050919050565b7f4f776e61626c653a206e6577206f776e657220697320746865207a65726f206160008201527f6464726573730000000000000000000000000000000000000000000000000000602082015250565b6000613ad4602683612e7b565b9150613adf82613a78565b604082019050919050565b60006020820190508181036000830152613b0381613ac7565b9050919050565b7f5265656e7472616e637947756172643a207265656e7472616e742063616c6c00600082015250565b6000613b40601f83612e7b565b9150613b4b82613b0a565b602082019050919050565b60006020820190508181036000830152613b6f81613b33565b9050919050565b7f4552433732313a207472616e736665722066726f6d20696e636f72726563742060008201527f6f776e6572000000000000000000000000000000000000000000000000000000602082015250565b6000613bd2602583612e7b565b9150613bdd82613b76565b604082019050919050565b60006020820190508181036000830152613c0181613bc5565b9050919050565b7f4552433732313a207472616e7366657220746f20746865207a65726f2061646460008201527f7265737300000000000000000000000000000000000000000000000000000000602082015250565b6000613c64602483612e7b565b9150613c6f82613c08565b604082019050919050565b60006020820190508181036000830152613c9381613c57565b9050919050565b7f4f776e61626c653a2063616c6c6572206973206e6f7420746865206f776e6572600082015250565b6000613cd0602083612e7b565b9150613cdb82613c9a565b602082019050919050565b60006020820190508181036000830152613cff81613cc3565b9050919050565b7f455243323938313a20726f79616c7479206665652077696c6c2065786365656460008201527f2073616c65507269636500000000000000000000000000000000000000000000602082015250565b6000613d62602a83612e7b565b9150613d6d82613d06565b604082019050919050565b60006020820190508181036000830152613d9181613d55565b9050919050565b7f455243323938313a20696e76616c696420726563656976657200000000000000600082015250565b6000613dce601983612e7b565b9150613dd982613d98565b602082019050919050565b60006020820190508181036000830152613dfd81613dc1565b9050919050565b7f4552433732313a20617070726f766520746f2063616c6c657200000000000000600082015250565b6000613e3a601983612e7b565b9150613e4582613e04565b602082019050919050565b60006020820190508181036000830152613e6981613e2d565b9050919050565b7f4552433732313a207472616e7366657220746f206e6f6e20455243373231526560008201527f63656976657220696d706c656d656e7465720000000000000000000000000000602082015250565b6000613ecc603283612e7b565b9150613ed782613e70565b604082019050919050565b60006020820190508181036000830152613efb81613ebf565b9050919050565b600081519050919050565b600082825260208201905092915050565b6000613f2982613f02565b613f338185613f0d565b9350613f43818560208601612e8c565b613f4c81612ebf565b840191505092915050565b6000608082019050613f6c6000830187612fc0565b613f796020830186612fc0565b613f866040830185613056565b8181036060830152613f988184613f1e565b905095945050505050565b600081519050613fb281612de1565b92915050565b600060208284031215613fce57613fcd612dab565b5b6000613fdc84828501613fa3565b91505092915050565b7f4552433732313a206d696e7420746f20746865207a65726f2061646472657373600082015250565b600061401b602083612e7b565b915061402682613fe5565b602082019050919050565b6000602082019050818103600083015261404a8161400e565b9050919050565b7f4552433732313a20746f6b656e20616c7265616479206d696e74656400000000600082015250565b6000614087601c83612e7b565b915061409282614051565b602082019050919050565b600060208201905081810360008301526140b68161407a565b9050919050565b7f455243373231456e756d657261626c653a20636f6e736563757469766520747260008201527f616e7366657273206e6f7420737570706f727465640000000000000000000000602082015250565b6000614119603583612e7b565b9150614124826140bd565b604082019050919050565b600060208201905081810360008301526141488161410c565b9050919050565b600061415a82612f2b565b915061416583612f2b565b9250828210156141785761417761373e565b5b828203905092915050565b7f4e487b7100000000000000000000000000000000000000000000000000000000600052603160045260246000fdfea264697066735822122064cd53f326287f65747e262abaa1d3c8bddf685c76cd0536a832f28b53dff6fd64736f6c63430008090033",
  "linkReferences": {},
  "deployedLinkReferences": {}
}